:020000040800F2
:10000000C808002045010008FD1D0008191A000855
:10001000F91D0008D10100081727000800000000A2
:100020000000000000000000000000001D2000088B
:100030000902000800000000391E0008ED23000836
:100040005F0100085F0100085F0100085F01000810
:100050005F0100085F0100085F0100085F01000800
:100060005F0100085F0100085F0100085F010008F0
:100070005F0100085F0100085F0100085F010008E0
:100080005F0100085F0100085F0100085F010008D0
:100090005F0100085F0100085F0100085F010008C0
:1000A0005F0100085F0100085F0100085F010008B0
:1000B0005F0100085F0100085F0100085F010008A0
:1000C0005F0100085F0100085F0100085F01000890
:1000D0005F0100085F0100085F0100085F01000880
:1000E0005F0100085F0100085F0100085F01000870
:1000F0005F0100085F0100085F0100085F01000860
:100100005F0100085F0100085F0100085F0100084F
:100110005F0100085F0100085F0100085F0100083F
:100120005F0100085F0100085F0100085F0100082F
:10013000DFF80CD000F03AF800480047612B0008C7
:10014000C80800200648804706480047FEE7FEE74B
:10015000FEE7FEE7FEE7FEE7FEE7FEE7FEE7FEE777
:100160005924000831010008202A04DB203A21FA32
:1001700002F00021704721FA02F3D040C2F12002C0
:100180009140084319467047D2B201E000F8012BB4
:10019000491EFBD270470022F6E710B513460A4607
:1001A00004461946FFF7F0FF204610BD064C074DE8
:1001B00006E0E06840F0010394E807009847103437
:1001C000AC42F6D3FFF7B8FF183100083831000809
:1001D00000BFFEE7F0B505460E460024AF1905E066
:1001E00015F8011BA0B202F07DFA0446BD42F7D318
:1001F000A0B2002102F076FA04462046002102F067
:1002000071FA04462046F0BD7047704770B586B05D
:100210000446002500200590002600F069FC0B48EC
:10022000001BC50A00200190039401200290049550
:1002300005A901A800F0E6FA064600F0DDFB16B1BC
:10024000012006B070BD0020FBE70000000004089C
:1002500010B588B0002400F04BFC01A800F05AFB58
:1002600000F0CAFB0448039920EA010414B10220FB
:1002700008B010BD0020FBE7F0FF0F0010B500F044
:1002800037FC00BF34200349C86000BF00F0B4FB56
:1002900010BD0000002002402DE9F04104460E464A
:1002A0001746002500F024FC00BF15E056F825C0D5
:1002B000624600232146022000F0C2FB48B956F8EE
:1002C00025102068884202D00220BDE8F081241D5C
:1002D00001E00320F9E76D1CBD4202D203488442CD
:1002E000E4D900F089FB0020EFE70000FCFF0308E1
:1002F00070B58EB0044600260025684600F00AFB63
:100300000CB9012000E00020089001200790A520F2
:100310008DF82C009DF811008DF82D000B490298E6
:1003200040EA010600F0E4FB00F074FB00F0C2FAC2
:10033000054625B9099607A800F0FAFA054615B949
:1003400000200EB070BD0420FBE70000F0FF0F009E
:100350000021074AD1610749096941F00401054AB2
:1003600011611146096941F04001116170470000B7
:10037000A8040020002002402DE9F0470446002593
:100380004FF6FF763746B046B14600F0F5F8044325
:10039000E6B2C4F30727C4F307484FEA14694CF2E6
:1003A000503000F0E3F90546002D4FD12949C861CE
:1003B00000F080FA0546002D48D12748006940F03A
:1003C000100025490861FF2E09D0244800883043D9
:1003D000224908804CF2503000F0C8F905466DB94A
:1003E000FF2F0BD01D48801C008838431B49891CF7
:1003F00008804CF2503000F0B9F905467DB9B8F1EB
:10040000FF0F0CD01548001D008840EA0800134972
:10041000091D08804CF2503000F0A8F905467DB95E
:10042000B9F1FF0F0CD00D48801D008840EA09008B
:100430000A49891D08804CF2503000F097F90546B2
:100440000548006920F01000034908612846BDE80E
:10045000F0870000A80400200020024008F8FF1FD9
:100460002DE9F047044600254FF6FF763746B046A3
:10047000B14600F081F8C0432043C443E6B2C4F360
:100480000727C4F307484FEA14694CF2503000F0D4
:100490006DF90546002D4FD12949C86100F00AFACF
:1004A0000546002D48D12748006940F01000254935
:1004B0000861FF2E09D02448008830402249088076
:1004C0004CF2503000F052F905466DB9FF2F0BD0B9
:1004D0001D48801C008838401B49891C08804CF24C
:1004E000503000F043F905467DB9B8F1FF0F0CD04C
:1004F0001548001D008800EA08001349091D0880FE
:100500004CF2503000F032F905467DB9B9F1FF0FD9
:100510000CD00D48801D008800EA09000A49891D99
:1005200008804CF2503000F021F90546054800697A
:1005300020F01000034908612846BDE8F08700005C
:10054000A80400200020024008F8FF1FA520002179
:10055000044AD26902F00201022901D1002000E020
:10056000A5207047002002400248C069C0F3820005
:1005700070470000002002400148006A70470000F8
:100580000020024070B504460D4601264CF2503062
:1005900000F0ECF80646A6B900200B49C8610B48EC
:1005A000006940F010000949086125804CF2503084
:1005B00000F0DCF806460548006920F01000034909
:1005C0000861304670BD0000A804002000200240F1
:1005D00070B5054600244CF2503000F0C7F80446D0
:1005E0005CBB00201649C8611648006940F0200035
:1005F000144908610846006940F0400008614CF267
:10060000503000F0B3F804460E48006920F0200096
:100610000C4908618CB90846006940F01000086177
:10062000094805804CF2503000F0A0F80446054817
:10063000006920F0100003490861204670BD0000E9
:10064000A80400200020024000F8FF1F70B50446F7
:1006500000254CF2503000F089F80546BDB9002065
:100660000C49C8610C48006940F010000A49086153
:1006700044F08800094908804CF2503000F076F8C8
:1006800005460548006920F0100003490861284626
:1006900070BD0000A80400200020024002F8FF1FE7
:1006A0000021074AD1610749096941F00201054A61
:1006B000116111464861096941F0400111617047BB
:1006C000A8040020002002400022054BDA61054A00
:1006D000126942F00102034B1A6101807047000069
:1006E000A80400200020024000201E49C96801F033
:1006F000100139B11C49C96941F002011A4AD1619E
:1007000040F010001749C96801F0040139B11649D9
:10071000C96941F00101144AD16140F00400114956
:10072000C96901F0010169B10F49C96941F00401CA
:100730000D4AD16100BF0B49C96921F00101094A85
:10074000D16100BF00BF40F20111884206D10549C6
:10075000C96921F00101034AD16101E00149C86082
:1007600000BF704700200240A804002070B5044676
:1007700000F07CFB054609E0601C38B124B100F0B4
:1007800075FB401BA04201D9032070BD1248C06810
:1007900000F001000028EFD10F48C06800F02000F1
:1007A00020B100BF20200C49C86000BF0A48C068C3
:1007B00000F0100048B90848C06900F0010020B9F5
:1007C0000548C06800F0040018B1FFF78DFF012054
:1007D000DBE70020D9E700000020024070B50446A6
:1007E00000F044FB06462546681C10B1044800781A
:1007F000054400BF00F03AFB801BA842FAD370BD4D
:10080000140000202DE9F04104460E460127002582
:1008100000BF2648007E012802D10220BDE8F081F9
:1008200001202249087600BF2068022813D14CF22B
:100830005030FFF79BFF90BB0120FFF789FD4CF282
:100840005030FFF793FF07461948006920F0040075
:100850001749086123E04CF25030FFF787FFF0B9E9
:100860004FF0FF303060A56812E02846FFF718FF10
:100870004CF25030FFF77AFF07460D48006920F030
:1008800002000B4908610FB1356007E005F500650E
:10089000D4E9021001EBC020A842E6D800BF00BF97
:1008A00000200249087600BF3846B7E7A8040020B8
:1008B0000020024070B5A5250124FFF747FEC5B210
:1008C0004CF25030FFF752FF0446ECB900200F49BC
:1008D000C8610F48006940F020000D4908610846D2
:1008E000006940F0400008614CF25030FFF73EFFD5
:1008F00004460748006920F02000054908611CB93A
:100900002846FFF765FE0446204670BDA804002077
:100910000020024010B5044607202060FFF72CFE9F
:10092000A060FFF713FE2074FFF71EFE607410BD79
:1009300070B50446012500BF2E48007E012801D174
:10094000022070BD01202B49087600BF207800F0FE
:10095000010098B16068012804D1A068FFF780FD0C
:10096000054603E0A068FFF707FD054635B100BF67
:1009700000202049087600BF2846E2E7207800F0F2
:10098000020002280BD1207CFFF722FE054635B17C
:1009900000BF00201749087600BF2846D1E720781D
:1009A00000F0040004280BD1607CFFF74FFE0546E1
:1009B00035B100BF00200F49087600BF2846C0E7C8
:1009C000207800F0080008280CD1217E6069FFF72C
:1009D000D9FD054635B100BF00200649087600BFA5
:1009E0002846AEE700BF00200249087600BF28462F
:1009F000A7E70000A80400200348006940F0800039
:100A000001490861002070470020024010B500F045
:100A1000F5FA10BD0748006900F4007028B90648CF
:100A2000044988600548886001E001207047002083
:100A3000FCE700000020024023016745AB89EFCDB1
:100A40002DE9FE4F05468B461746984601260024A1
:100A50000020029000BF2448007E012802D102201D
:100A6000BDE8FE8F01202049087600BF4CF25030CF
:100A7000FFF77CFE064686BB012D02D101200290C5
:100A800006E0022D02D10220029001E00420029033
:100A900000241EE02201B946C24648465146FFF7EF
:100AA00063FB80B20190022000FB04B0009001992A
:100AB000FFF70AFE4CF25030FFF758FE06460B488F
:100AC000006920F001000949086106B104E0601CDA
:100AD000C4B202988442DDDB00BF00BF002002499F
:100AE000087600BF3046BBE7A80400200020024083
:100AF00000200849096901F0800151B10649054A01
:100B00005160064951601146096901F0800101B147
:100B1000012070470020024023016745AB89EFCDDB
:100B20002DE9F847024600240020002584460027CE
:100B300000237BE14FF0010808FA03F4D1F80080AC
:100B400008EA0400A0427DD1DFF8ECA2D1F80480CD
:100B5000A8EB0A09D0453AD014DCB8F1030F50D005
:100B600009DCB8F1000F31D0B8F1010F1CD0B8F199
:100B7000020F49D120E0B8F1110F18D0B8F1120FCF
:100B800042D11EE0B9F5881F25D006DCB9F5803FBB
:100B900020D0B9F5801F37D11AE0B9F5001F18D061
:100BA000B9F5041F30D117E0D1F80CC02DE0D1F811
:100BB0000C8008F1040C28E0D1F80C8008F1080C36
:100BC00023E0D1F80C8008F10C0C1EE000BF00BF40
:100BD00000BF00BF00BF00BFD1F80880B8F1000F10
:100BE00002D14FF0040C0BE0D1F80880B8F1010FEE
:100BF00003D14FF0080C146102E04FF0080C54616F
:100C000003E04FF0000C00E000BF00BFFF2801D858
:100C1000904601E002F104084646FF2802D84FEA58
:100C2000830803E0A3F108084FEA88084746D6F88E
:100C300000804FF00F0909FA07F928EA09080CFAB1
:100C400007F900E07AE048EA0908C6F80080D1F820
:100C5000048008F08058B8F1805F6FD100BFDFF8E2
:100C6000DC81D8F8188048F00108DFF8D091C9F885
:100C70001880C846D8F8188008F00108CDF8008020
:100C800000BF00BF4FEAB9384FEA930958F829501E
:100C90004FEA83784FEA18794FF00F0808FA09F8FD
:100CA00025EA0805DFF89881424502D14FF0000897
:100CB00024E0DFF89081424502D14FF001081DE0A9
:100CC000DFF88481424502D14FF0020816E0DFF8D8
:100CD0007C81424502D14FF003080FE0DFF87081BC
:100CE000424502D14FF0040808E0DFF86881424530
:100CF00002D14FF0050801E04FF006084FEA837972
:100D00004FEA197908FA09F848EA0505DFF8488139
:100D10004FEA930948F82950D1F8048008F4803844
:100D2000B8F5803F0BD1DFF83481D8F8008048EA6D
:100D30000008DFF82891C9F800800AE075E0DFF8C4
:100D40001C81D8F8008028EA0008DFF81091C9F863
:100D50000080D1F8048008F40038B8F5003F0ED1C7
:100D6000DFF8F88008F10408D8F8008048EA0008A5
:100D7000DFF8E89009F10409C9F800800DE0DFF818
:100D8000DC8008F10408D8F8008028EA0008DFF8C1
:100D9000CC9009F10409C9F80080D1F8048008F466
:100DA0008018B8F5801F0ED1DFF8B08008F1080870
:100DB000D8F8008048EA0008DFF8A09009F1080997
:100DC000C9F800800DE0DFF8948008F10808D8F831
:100DD000008028EA0008DFF8849009F10809C9F8C2
:100DE0000080D1F8048008F40018B8F5001F0ED177
:100DF000DFF8688008F10C08D8F8008048EA00089D
:100E0000DFF8589009F10C09C9F800800DE0DFF80F
:100E10004C8008F10C08D8F8008028EA0008DFF8B8
:100E20003C9009F10C09C9F800805B1C102BFFF401
:100E300081AEBDE8F88700000000111000100240EC
:100E400000080140000C0140001001400014014066
:100E500000180140001C014008000140000401404E
:100E60000AB1016101E00B040361704701480068A9
:100E7000704700000C00002003480068034909780F
:100E800008440149086070470C000020140000204D
:100E900010B50848006840F01000064908600320BB
:100EA00000F098F8002000F007F800F02BF8002080
:100EB00010BD00000020024070B504460E480078C6
:100EC0004FF47A71B1FBF0F00C490968B1FBF0F511
:100ED000284600F02FFC08B1012070BD102C07D26D
:100EE00000222146501E00F037F80548046001E05A
:100EF0000120F2E70020F0E7140000201800002095
:100F00001000002008B500BF1148806940F00100C2
:100F10000F4988610846806900F00100009000BF19
:100F200000BF00BF0846C06940F08050C861084655
:100F3000C06900F08050009000BF00BF00BF0549AD
:100F4000486820F0E06040F00070486000BF08BDD5
:100F500000100240000001402DE9F05F80460D4680
:100F60001646002700F04CFF074639462A4633460E
:100F700001F00700C0F1070ABAF1040F02D94FF0DF
:100F8000040A01E0C0F1070AD14600F1040ABAF1EF
:100F9000070F02D24FF0000A01E0A0F1030AD44685
:100FA0004FF0010A0AFA09FAAAF1010A0AEA020A4A
:100FB0000AFA0CFA4FF0010B0BFA0CFBABF1010B28
:100FC0000BEA030B4AEA0B042146404600F020FFDF
:100FD000BDE8F09F00BF00F00702064B19684FF60E
:100FE000FF031940044B0B4343EA0221014B1960F4
:100FF00000BF70470CED00E00000FA0500BF00BF25
:1010000000BF00BF00BFBFF34F8F00BF00BF00BFD6
:101010000948006800F4E06008490843001D0649DB
:10102000086000BF00BF00BFBFF34F8F00BF00BF0D
:1010300000BF00E000BFFDE70CED00E00000FA0596
:1010400070B504460D4600266D48006800F00700A4
:10105000A8420ED26A48006820F007002843684979
:1010600008600846006800F00700A84201D001208F
:1010700070BD207800F0020002281DD1207800F019
:101080000400042805D15F48406840F4E0605D49F1
:101090004860207800F00800082805D159484068C9
:1010A00040F46050574948605648406820F0F000CE
:1010B000A168084353494860207800F001000028E7
:1010C0005DD06068012806D14E48006800F4003009
:1010D00090B90120CCE76068022806D14948006831
:1010E00000F0007040B90120C2E74648006800F0F7
:1010F000020008B90120BBE74248406820F0030025
:10110000616808433F494860FFF7B0FE06466068E3
:10111000012810D108E0FFF7A9FE801B41F28831B9
:10112000884201D90320A3E73648406800F00C004C
:101130000428F0D123E06068022810D108E0FFF70E
:1011400095FE801B41F28831884201D903208FE748
:101150002C48406800F00C000828F0D10FE008E0AF
:10116000FFF784FE801B41F28831884201D90320B9
:101170007EE72448406800F00C000028F0D12048A9
:10118000006800F00700A8420ED91D48006820F052
:10119000070028431A4908600846006800F0070065
:1011A000A84201D0012063E7207800F00400042861
:1011B00007D11448406820F4E060E1680843114911
:1011C0004860207800F00800082808D10D484068E1
:1011D00020F46050216940EAC1000A49486000F0EB
:1011E0003DF808494968C1F30311074A515CC840FA
:1011F000064908600020FFF75FFE002038E7000086
:101200000020024000100240F02C000818000020CE
:1012100001480068704700001800002000B5FFF783
:10122000F7FF04494968C1F30221034A515CC840F1
:1012300000BD000000100240002D000800B5FFF7BF
:10124000E7FF04494968C1F3C221034A515CC84021
:1012500000BD000000100240002D0008F0B585B070
:101260000FF26C0C9CE8E01001A8A0E8E0101CA5AF
:101270002D68009500210022002300240020194D34
:10128000696801F00C05F5B1042D02D0082D19D1C3
:1012900001E0154819E001ADC1F38346AC5D01F4EE
:1012A000803555B10F4D6D68C5F340451DF80520DB
:1012B0000D4D6543B5FBF2F302E00C4D04FB05F365
:1012C000184602E000BF0A4800BF00BF05B0F0BDED
:1012D00002030405060708090A0B0C0D0E0F101077
:1012E0000102000000100240001BB70000093D0091
:1012F00000127A00F8B504460025207800F00100BD
:10130000002878D0F848406800F00C0004280CD081
:10131000F548406800F00C00082811D1F2484068F8
:1013200000F48030B0F5803F0AD1EF48006800F447
:10133000003000285FD0606800285CD10120F8BD33
:1013400000BF6068B0F5803F06D1E748006840F410
:101350008030E549086028E0606858B9E2480068D4
:1013600020F48030E04908600846006820F48020BE
:1013700008601AE06068B0F5A02F0BD1DA48006869
:1013800040F48020D84908600846006840F4803066
:1013900008600AE0D448006820F48030D249086030
:1013A0000846006820F48020086000BF606888B1AB
:1013B000FFF75CFD054606E0FFF758FD401B64287B
:1013C00001D90320BBE7C848006800F400300028BA
:1013D000F2D010E0FFF74AFD054606E0FFF746FDB4
:1013E000401B642801D90320A9E7BF48006800F426
:1013F00000300028F2D1207800F00200022857D1F6
:10140000B948406800F00C0050B1B748406800F09F
:101410000C00082818D1B448406800F4803098B90E
:10142000B148006800F0020020B12069012801D015
:10143000012084E7AC48006820F0F800616940EAC8
:10144000C100A949086033E02069E8B10120A7493B
:101450000860FFF70BFD054606E0FFF707FD401BA0
:10146000022801D903206AE79F48006800F00200C3
:101470000028F2D09C48006820F0F800616940EA3A
:10148000C1009949086013E0002098490860FFF7FF
:10149000EDFC054606E0FFF7E9FC401B022801D9F8
:1014A00003204CE79048006800F002000028F2D1C9
:1014B000207800F0080008282DD1A069B8B10120DB
:1014C0008B490860FFF7D2FC054606E0FFF7CEFC2B
:1014D000401B022801D9032031E78348406A00F00D
:1014E00002000028F2D0012000F018FD13E00020D7
:1014F0007F490860FFF7BAFC054606E0FFF7B6FC37
:10150000401B022801D9032019E77748406A00F000
:1015100002000028F2D1207800F00400042873D1E2
:1015200000267148C06900F0805070B900BF6E4855
:10153000C06940F080506C49C8610846C06900F03D
:101540008050009000BF00BF01266A48006800F488
:101550008070B0B96748006840F4807065490860E1
:10156000FFF784FC054606E0FFF780FC401B64287B
:1015700001D90320E3E65F48006800F4807000288A
:10158000F2D000BFE068012806D15748006A40F059
:1015900001005549086227E0E06858B95248006ADE
:1015A00020F00100504908620846006A20F004005B
:1015B000086219E0E06805280BD14B48006A40F04A
:1015C0000400494908620846006A40F001000862C8
:1015D0000AE04548006A20F00100434908620846D5
:1015E000006A20F00400086200BFE068A0B1FFF7C5
:1015F0003DFC054609E0FFF739FC401B41F288310C
:10160000884202D903209AE622E03748006A00F0B7
:1016100002000028EFD012E0FFF728FC054608E0A2
:10162000FFF724FC401B41F28831884201D9032096
:1016300085E62D48006A00F002000028F0D1012E56
:1016400005D12948C06920F080502749C86100BFF2
:10165000E069C8B32448406800F00C00082860D056
:10166000E069022848D1002020490866FFF7FEFB08
:10167000054606E0FFF7FAFB401B022801D90320CC
:101680005DE61948006800F000700028F2D1206A79
:10169000B0F5803F07D11448406820F40030A168BD
:1016A000084311494860D4E9080108430E494968D4
:1016B00021F4741108430C49486001200B49086665
:1016C000FFF7D4FB054607E02DE0FFF7CFFB401BFB
:1016D000022801D9032032E60348006800F00070B8
:1016E0000028F2D01FE0000000100240000042423B
:1016F000800442420070004000200C490866FFF759
:10170000B5FB054606E0FFF7B1FB401B022801D9F7
:10171000032014E60648006800F000700028F2D1AB
:1017200001E001200BE6002009E600000000424233
:101730000010024070B504462546681EB0F1807F57
:1017400001D301200FE0681E4FF0E02148610F2116
:101750004FF0FF3000F05CFB00204FF0E02188618B
:1017600007200861002070BD10B504460CB90120A7
:1017700010BDA06900B100E000BF94F8390028B99D
:10178000002084F83800204600F028F8242084F84F
:1017900039002068C06820F400502168C8602046E5
:1017A00000F086FE2068006920F4904021680861FE
:1017B0002068406920F02A00216848612068C068DC
:1017C00040F400502168C8600020E063202084F8C5
:1017D000390084F83A000020CAE7000010B586B04E
:1017E0000446002002900390049005901A49206856
:1017F00088422ED100BF1948806940F480401749C3
:1018000088610846806900F48040019000BF00BFF5
:1018100000BF0846806940F004008861084680697E
:1018200000F00400019000BF00BF481502900220A4
:1018300003900320059002A90948FFF771F94FF4BE
:101840008060029000200390049002A90448FFF7F2
:1018500067F906B010BD00000038014000100240DA
:10186000000801402DE9F84304460D4616461F4680
:101870004FF0000994F83A00202860D105B116B95C
:101880000120BDE8F88300BF94F83800012801D199
:101890000220F6E7012084F8380000BF0020E06352
:1018A000222084F83A00FFF7E1FA8146A685E68512
:1018B00039E0E08D401EE085A068B0F5805F1BD167
:1018C0004B46002220212046009700F0D5FE08B1AB
:1018D0000320D6E7A846206938B920684068C0F3DD
:1018E0000800A8F80000AD1C1DE020684068C0B2E8
:1018F000A8F800006D1C16E04B460022202120466F
:10190000009700F0B9FE08B10320BAE7206920B9BA
:101910002068406805F8010B05E02068406800F089
:101920007F0005F8010BE08D0028C2D1202084F84B
:101930003A0000BF002084F8380000BFA1E7022071
:101940009FE72DE9F84304460D4616461F464FF023
:10195000000994F8390020285CD105B116B901209E
:10196000BDE8F88300BF94F83800012801D10220B7
:10197000F6E7012084F8380000BF0020E063212052
:1019800084F83900FFF772FA8146A684E6842BE0DA
:10199000E08C401EE084A068B0F5805F16D14B4615
:1019A000002280212046009700F066FE08B1032047
:1019B000D6E7A846B8F80000C0F3080021684860E0
:1019C000206908B9AD1C0FE06D1C0DE04B460022EC
:1019D00080212046009700F04FFE08B10320BFE7AA
:1019E00015F8010B21684860E08C0028D0D14B46E7
:1019F000002240212046009700F03EFE08B103205F
:101A0000AEE7202084F8390000BF002084F83800B9
:101A100000BFA5E70220A3E700BFFEE7F0B5144A28
:101A200000250024002320E0B1FBF2F6303606F05A
:101A3000FF0C2E466D1C00F806C0B1FBF2F602FB4F
:101A400016110A26B2FBF6F26E1E865D302E01D10B
:101A5000012600E000260CB9012700E000273E40E7
:101A60000EB1002500E0641C5B1C0A2BDCD3F0BD2A
:101A700000CA9A3B00B585B0002001900290039007
:101A8000049000BF1748806940F020001549886124
:101A90000846806900F02000009000BF00BF00BF32
:101AA0000846806940F0040088610846806900F0BB
:101AB0000400009000BF00BF01224FF4C0510A484B
:101AC000FFF7CEF94FF4C0500190012002900020A2
:101AD00003900220049001A90348FFF721F805B004
:101AE00000BD0000001002400014014010B50B487A
:101AF0000B4908604FF4E1204860002108488160EC
:101B0000C16001610C21416100218161C161FFF768
:101B10002BFE08B1FEF779FB10BD00000038014034
:101B20006404002008B50020009056A000F0D0FB0F
:101B3000574800F0CDFB574800F0CAFB564800F06C
:101B4000C7FB564800F0C4FB534800F0C1FB5448A3
:101B500000F0BEFB4E4800F0BBFB52A000F0B8FB0B
:101B6000FEF776FB504908608AE0504800F0B0FB71
:101B70004F4800F0ADFB4F4800F0AAFB4E4800F084
:101B8000A7FB4948006818B14C4800F0A1FB02E0EF
:101B90004B4800F09DFB4B4800F09AFB4A48006818
:101BA00040684FF0FF33012269464748FFF75AFE6D
:101BB0009DF80000312806D032281BD033281CD0D5
:101BC000342858D131E000F02BFA404840684049B1
:101BD0000860084600683F4908603C49086880F38F
:101BE000088800BF012080F3108800BF39480068D2
:101BF000804744E000F0F8FA41E037A000F068FBCD
:101C00003248406832490860084600683149086037
:101C10002E49086880F3088800BF012080F31088EF
:101C200000BF2C480068804729E01F480068002852
:101C300010D00120FEF75CFB40B930A000F048FB5B
:101C400036A000F045FBFEF7E1FE13E03BA000F0FC
:101C50003FFB0FE00020FEF74BFB40B943A000F034
:101C600037FB2EA000F034FBFEF7D0FE02E047A0C9
:101C700000F02EFB03E050A000F02AFB00BF00BFE5
:101C800073E700001B5B324A1B5B31480000000019
:101C900078300008D82F0008382F000828300008B6
:101CA000882F00080D0A0A0008000020982E00085E
:101CB000082D0008582D0008A82D0008482E0008FF
:101CC000F82D0008E82E00086404002000400008F9
:101CD00004000020000000205374617274207072B0
:101CE0006F6772616D20657865637574696F6E2EBC
:101CF0002E2E2E2E2E0D0A0A000000005772697437
:101D0000652050726F74656374696F6E20646973C7
:101D100061626C65642E2E2E0D0A00005379737477
:101D2000656D2077696C6C206E6F772072657374B7
:101D30006172742E2E2E0D0A000000004572726F23
:101D4000723A20466C6173682077726974652075F9
:101D50006E2D70726F74656374696F6E2066616951
:101D60006C65642E2E2E0D0A0000000057726974F7
:101D7000652050726F74656374696F6E20656E6163
:101D8000626C65642E2E2E0D0A0000004572726F83
:101D9000723A20466C6173682077726974652070AE
:101DA000726F74656374696F6E206661696C6564D7
:101DB0002E2E2E0D0A000000496E76616C6964209B
:101DC0004E756D6265722021203D3D3E2054686550
:101DD000206E756D6265722073686F756C64206229
:101DE000652065697468657220312C20322C20339F
:101DF000206F7220340D000000BFFEE77047000026
:101E000002480068C0F30220704700000CED00E0BB
:101E100010B5002807DA0A07140E054A00F00F0370
:101E20001B1FD45403E00A07130E024A135410BDBB
:101E300018ED00E000E400E070472DE9FE430546A0
:101E40000F4690460026012068700020A870FF20F1
:101E5000E870002403E0395D201D2954641C385DBE
:101E600008B1402CF7D30021201D29544146684673
:101E7000FFF7D4FD641D06E03046761C1DF80020F7
:101E80002046641C2A541DF806000028F4D126467A
:101E900002E00020A855761C842EFAD3BDE8FE830C
:101EA000F0B507461446B3F5806F02D34FF4806C4B
:101EB00001E04FF0800C6246934201D29C4600E064
:101EC00094466646B2F5806F04D14FF0020C81F85B
:101ED00001C003E04FF0010C81F801C08C706FEA83
:101EE000040C81F803C03D46042004E015F801CB42
:101EF00001F800C0401C06F1040C6045F6D3964280
:101F00000AD8301D04E04FF01A0C01F800C0401C44
:101F100002F1040C6045F6D3F0BD000008B5084995
:101F20000968C9084FF47A72B1FBF2F1414300919C
:101F300000BF00BF00994A1E00920029F9D108BDD8
:101F4000180000202DE9F84304460E46904600256F
:101F5000002030604346012269462F48FFF782FC8B
:101F60000746002F53D19DF80000182812D006DC38
:101F7000012809D0022809D004281DD109E04128F0
:101F800017D0612818D115E0802517E04FF480653F
:101F900014E013E04346012269461F48FFF762FC44
:101FA00028B99DF80000182801D1022500E001277A
:101FB00004E000BF022701E0012700BF00BF9DF839
:101FC00000002070802D22D3281D82B24346A11C20
:101FD0001148FFF747FC0746C7B9A078E17881F0C0
:101FE000FF01884202D00025012710E0281D205C57
:101FF0004FEA0029681D205C81442946201DFEF718
:10200000E9F8484503D00025012700E000253560A8
:102010003846BDE8F88300006404002070470000E3
:102020001FB50020019002900390009028A000F0BE
:102030004FF92A4800F04CF9294800F049F929489D
:1020400000F046F9284800F043F9264800F040F92E
:10205000264800F03DF9214800F03AF924A000F0AC
:1020600037F924A000F034F9684600F057FB044625
:10207000002C16D127A000F02BF9364800F028F9E3
:1020800001A80099FFF7CAFC33A000F021F901A8CC
:1020900000F01EF933A000F01BF935A000F018F98C
:1020A00014E0052C03D13BA000F012F90EE0042C43
:1020B00003D13EA000F00CF908E0022C03D140A0AF
:1020C00000F006F902E043A000F002F91FBD000095
:1020D0001B5B324A1B5B314800000000783000086F
:1020E000D82F0008382F000828300008882F000853
:1020F0000D0A0A00B5C8B4FDC9D5D0B4B3CCD0F22E
:10210000202E2E2E2028B0B4276127CDCBB3F62960
:102110000A0D00000A0A0D20B3CCD0F2C9D5D0B404
:10212000B3C9B9A6210A0D2D2D2D2D2D2D2D2D2D07
:102130002D2D2D2D2D2D2D2D2D2D2D2D2D2D2D2DCF
:102140002D2D2D2D2D2D2D0D0A20B3CCD0F2C3FB1E
:102150003A2000001C0000200A0D20B4F3D0A13A60
:10216000200000002042797465730D0A0000000011
:102170002D2D2D2D2D2D2D2D2D2D2D2D2D2D2D2D8F
:102180002D2D2D2D2D2D2D2D2D2D2D2D2D2D2D2D7F
:102190000A0000000A0A0DC4DAB4E6BFD5BCE4B2F6
:1021A000BBD7E3A3A1210A0D000000000A0A0DD14C
:1021B000E9D6A4CAA7B0DCA3A1210A0D0000000043
:1021C0000D0A0AB1BBD3C3BBA7D6D5D6B92E0A0D0B
:1021D000000000000A0DBDD3CAD5CEC4BCFECAA7FC
:1021E000B0DC210A0D00000008B50020009010A00E
:1021F00000F06EF84FF0FF33012269461348FFF7F5
:1022000031FB9DF80000432810D14FF4804210A10B
:10221000154800F065FB00909DF8000018B113A070
:1022200000F056F802E01CA000F052F808BD0000D3
:102230000A0A0D53656C656374205265636569769F
:10224000652046696C650A0D0000000064040020EA
:1022500055706C6F61646564466C617368496D614B
:1022600067652E62696E0000004000080A0D457225
:10227000726F72204F63637572726564207768694C
:102280006C65205472616E736D697474696E672039
:1022900046696C650A0D00000A0D46696C6520757B
:1022A000706C6F61646564207375636365737366D6
:1022B000756C6C79200A0D0001B54FF47A73012218
:1022C00069460248FFF73DFB08BD0000640400209A
:1022D00070B50446002501E0681C85B2605D0028E9
:1022E000FAD14FF47A732A4621460248FFF729FBB8
:1022F00070BD00006404002070B502460C46002149
:10230000002000231578302D3ED15578782D02D04D
:102310005578582D38D102212BE0555C412D02DB38
:10232000555C462D0BDD555C612D02DB555C662D41
:1023300005DD555C302D19DB555C392D16DC555CFF
:10234000302D05DB555C392D02DC555C303D0AE053
:10235000555C412D05DB555C462D02DC555C373D57
:1023600001E0555C573D05EB031301E0002005E05B
:10237000491C0B2902D2555C002DCED100BF555C03
:102380009DBB2360012030E02AE0555C15B9236035
:10239000012024E0555C6B2D02D0555C4B2D04D1FF
:1023A00019B19B022360012019E0555C6D2D02D00C
:1023B000555C4D2D04D119B11B05236001200EE0A1
:1023C000555C302D09DB555C392D06DC555C303D04
:1023D00003EB830605EB460301E0002004E0491C03
:1023E0000B2901D20128D0D100BF70BD10B5FEF776
:1023F00043FD10BD00B58FB0282105A8FDF7CBFE29
:1024000014216846FDF7C7FE0120059000040690E0
:10241000002007900120099002200C90C1030D912B
:10242000C1040E9105A8FEF765FF08B1FDF7EDFEAA
:102430000F20009002200190002002904FF4806055
:1024400003900020049002216846FEF7F9FD08B1D0
:10245000FDF7DBFE0FB000BD1148006840F0010041
:102460000F490860084640680E4908400C4948601A
:10247000084600680C490840094908600846006899
:1024800020F4802008600846406820F4FE00486080
:102490004FF41F008860C8030449086070470000BB
:1024A000001002400000FFF8FFFFF6FE08ED00E01C
:1024B0002DE9F041044600252068006920F44050D1
:1024C000E1680843216808612169A06808436169DF
:1024D000084305432068C06841F20C6188432843E3
:1024E0002168C8602068406920F44070A1690843F1
:1024F000216848615F49206888425CD1FEF79EFEF2
:1025000000EBC00101EB001061688900B0FBF1F63F
:10251000FEF794FE00EBC00101EB0010616889003A
:10252000B0FBF1F06421B0FBF1F000EBC00101EB76
:102530000010A6EB8000322101EB00106421B0FBFB
:10254000F1F000F0F006FEF779FE00EBC00101EBC0
:10255000001061688900B0FBF1F06421B0FBF1F07C
:1025600006EB0016FEF76AFE00EBC00101EB00105F
:1025700061688900B0FBF1F7FEF760FE00EBC00177
:1025800001EB001061688900B0FBF1F06421B0FB41
:10259000F1F000EBC00101EB0010A7EB800032214D
:1025A00001EB00106421B0FBF1F000F00F003044AB
:1025B000216888605BE0FEF731FE00EBC00101EBB3
:1025C000001061688900B0FBF1F6FEF727FE00EB12
:1025D000C00101EB001061688900B0FBF1F06421DB
:1025E000B0FBF1F000EBC00101EB0010A6EB8000A6
:1025F000322101EB00106421B0FBF1F000F0F00695
:10260000FEF70CFE00EBC00101EB001061688900D1
:10261000B0FBF1F06421B0FBF1F006EB0016FEF721
:10262000FDFD00EBC00101EB001061688900B0FB0B
:10263000F1F7FEF7F3FD00EBC00101EB001061685C
:102640008900B0FBF1F06421B0FBF1F000EBC001B8
:1026500001EB0010A7EB8000322101EB0010642198
:10266000B0FBF1F000F00F00304421688860BDE855
:10267000F0810000003801402DE9F04104460D468C
:1026800017469846069E21E0701CF8B12EB1FEF761
:10269000EDFBA0EB0800B04218D92068C06820F418
:1026A000D0702168C8602068406920F0010021686E
:1026B0004861202084F8390084F83A0000BF0020E7
:1026C00084F8380000BF0320BDE8F081206800686E
:1026D0002840A84201D1012000E00020B842D3D018
:1026E0000020F1E710B503460C46194644F4807209
:1026F00000BF4900520002F4807000B1491C01F48F
:10270000803010B141F22100414002F480300028B5
:10271000EFD088B210BD00BFFEE700002DE9F04FFA
:102720008BB0064600200990814607908046DFF86E
:10273000A0A1C3E0002700200890B9E04FF47A720E
:102740000AA96448FFF7FEFB10B1022873D193E099
:102750004FF000090A9838B102280BD10620FFF784
:10276000ABFD4FF0020885E00620FFF7A5FD012034
:1027700008907FE057488078B84203D01520FFF7D3
:102780009BFD76E0002F57D15248007900284BD0AE
:102790000025504C241D05E014F8012B28466D1C23
:1027A0004D490A54207808B1402DF5D3002228461F
:1027B0006D1C49490A540025641C05E014F8012BDE
:1027C00028466D1C02A90A542078202801D0102D1B
:1027D000F4D3002228466D1C02A90A5406A902A8B7
:1027E000FFF78AFD44F201013068884210D91820B1
:1027F00001900B05012201A93848FFF7A2F84FF418
:102800008013012201A93548FFF79BF84FF0050816
:102810002F48FDF7FBFC069830600620FFF74CFDC3
:102820004320FFF749FD20E00620FFF745FD01208A
:10283000089009901EE028E0DFF898B00BF1040B37
:102840000A98820859465046FDF726FD28B90A988D
:1028500082440620FFF730FD07E01820FFF72CFD2B
:102860001820FFF729FD4FF00408781CC7B201209B
:10287000079000BF00BF1AE01820FFF71DFD1820C9
:10288000FFF71AFD4FF0020811E0079808B109F1AF
:102890000109B9F1050F06D91820FFF70DFD182021
:1028A000FFF70AFD02E04320FFF706FD00BF00BF6F
:1028B000089818B9B8F1000F3FF440AF099818B95B
:1028C000B8F1000F3FF436AF40460BB0BDE8F08FD3
:1028D000004000085C0000201C0000206404002070
:1028E0002DE9F74F82B00025AB46A846002701200E
:1028F00001909148DDE90312FFF79FFA3EE04FF4A3
:10290000801383228C49491C8C48FFF71AF88021D8
:102910008948001DFDF75EFC0446200AFFF7CCFC49
:10292000E0B2FFF7C9FC4FF48013012269468348E7
:10293000FEF798FFF0B99DF80000062802D14FF08D
:10294000010B18E09DF80000182814D14FF48013F3
:10295000012269467948FEF785FF60B99DF80000BD
:10296000182808D10220FDF739FF74480068406834
:10297000022700E06D1C052D00D30127BBF1000FDD
:1029800001D1002FBBD0DDF80890DDF8108052E0B7
:102990000198C2B2434668494846FFF781FA4FF0B2
:1029A000000B00208DF8000000253FE0B8F5806F97
:1029B00002D34FF4806600E08026F01C82B24FF410
:1029C00080135D49491C5D48FEF7BBFF31465A48FC
:1029D000001DFDF7FFFB0446200AFFF76DFCE0B287
:1029E000FFF76AFC4FF48013012269465348FEF753
:1029F00039FFB8B99DF80000062813D14FF0010B3C
:102A0000B0450BD9B144A8EB06080198102801D1B4
:102A1000052708E00198401C019004E0B1444FF004
:102A2000000800E06D1C052D00D30127BBF1000F4D
:102A300001D1002FBAD0B8F1000F01D0002FA7D0DC
:102A40004FF0000B00208DF8000000252DE0042041
:102A5000FFF732FC4FF48013012269463748FEF736
:102A600001FFF0B99DF80000062802D14FF0010BDC
:102A700018E09DF80000182814D14FF480130122AB
:102A800069462E48FEF7EEFE60B99DF80000182852
:102A900008D10220FDF7A2FE2848006840680227FE
:102AA00000E06D1C052D00D30127BBF1000F01D103
:102AB000002FCCD0DFBB01201F4948700020887058
:102AC000FF20C8704FF0040A07E000201A4901F8FF
:102AD0000A000AF1010000F0FF0ABAF1840FF4D3F2
:102AE0004FF4801383221449491C1448FEF729FF30
:102AF00080211148001DFDF76DFB0446200AFFF7F9
:102B0000DBFBE0B2FFF7D8FB4FF4801301226946EC
:102B10000A48FEF7A7FE50B99DF80000182806D114
:102B20000220FDF75BFE0548006840680227384632
:102B300005B0BDE8F08F00005C00002064040020B8
:102B400002E008C8121F08C1002AFAD17047704776
:102B5000002001E001C1121F002AFBD170470000D4
:102B600008B5FEF795F9FFF745FCFEF783FFFEF782
:102B7000BDFF3DA0FFF7ACFB3EA0FFF7A9FB4FF464
:102B80007A70FDF72BFE38A0FFF7A2FB4348FFF752
:102B90009FFB4348FFF79CFB4248FFF799FB4248E5
:102BA000FFF796FB3F48FFF793FB4048FFF790FB8A
:102BB0003A48FFF78DFB3EA0FFF78AFB0524002073
:102BC00000903648FFF784FB3A48FFF781FB334813
:102BD000FFF77EFB00BF002000904FF47A730122C4
:102BE00069463548FEF73EFE601EC4B29DF80000FF
:102BF000592803D09DF80000792804D1FDF73EFB49
:102C0000FEF790FF2EE044B19DF800004E2803D15E
:102C10009DF800006E2800D0DDE713A0FFF758FBF9
:102C200026A0FFF755FB4FF47A70FDF7D7FD2C482F
:102C300000682C490840B0F1005F13D12848406873
:102C4000294908600846006828490860244908683E
:102C500080F3088800BF012080F3108800BF23485C
:102C60000068804700BFFEE71B5B324A1B5B3148B0
:102C7000000000000D0A2D2D3ED5FDD4DABDF8C8A8
:102C8000EB626F6F746C6F61646572B3CCD0F2A34A
:102C9000ACC7EBC9D4B5C8A3A1A3A1007830000884
:102CA000D82F0008382F000828300008882F000887
:102CB0000D0A0A00C8300008640400200D0A2D2DFA
:102CC0003ED5FDD4DABDF8C8EB415050B3CCD0F2BC
:102CD000A3ACC7EBC9D4B5C8A3A1A3A10000000051
:102CE000004000080000FE2F04000020000000202B
:102CF00000000000000000000102030406070809AC
:102D000000000000010203043D2020CFC2D4D8B34C
:102D1000CCD0F2B5BDC4DAB2BF666C617368202D49
:102D20002D2D2D2D2D2D2D2D2D2D2D2D2D2D2D2DD3
:102D30002D2D2D2D2D2D2D31202020202020202027
:102D40002020202020202020202020202020202083
:102D5000203D0D0A000000003D2020B4D3C4DAB2AB
:102D6000BF666C617368C9CFB4ABB3CCD0F2202D11
:102D70002D2D2D2D2D2D2D2D2D2D2D2D2D2D2D2D83
:102D80002D2D2D2D2D2D2D322020202020202020D6
:102D90002020202020202020202020202020202033
:102DA000203D0D0A000000003D2020D6B4D0D041C7
:102DB0005050B3CCD0F2202D2D2D2D2D2D2D2D2D7D
:102DC0002D2D2D2D2D2D2D2D2D2D2D2D2D2D2D2D33
:102DD0002D2D2D2D2D2D2D33202020202020202085
:102DE00020202020202020202020202020202020E3
:102DF000203D0D0A000000003D2020B4F2BFAAD003
:102E0000B4B1A3BBA4202D2D2D2D2D2D2D2D2D2D79
:102E10002D2D2D2D2D2D2D2D2D2D2D2D2D2D2D2DE2
:102E20002D2D2D2D2D2D2D34202020202020202033
:102E30002020202020202020202020202020202092
:102E4000203D0D0A000000003D2020B9D8B1D5D0AA
:102E5000B4B1A3BBA4202D2D2D2D2D2D2D2D2D2D29
:102E60002D2D2D2D2D2D2D2D2D2D2D2D2D2D2D2D92
:102E70002D2D2D2D2D2D2D342020202020202020E3
:102E80002020202020202020202020202020202042
:102E9000203D0D0A000000003D3D3D3D3D3D3D3DD6
:102EA0003D3D3D3D3D3D3D3D3D3D3D3D3D3D3D3D52
:102EB0003D3D3D20B2D9D7F7C1D0B1ED203D3D3DDC
:102EC0003D3D3D3D3D3D3D3D3D3D3D3D3D3D3D3D32
:102ED0003D3D3D3D3D3D3D3D3D3D3D3D3D3D3D3D22
:102EE0003D3D0D0A000000003D3D3D3D3D3D3D3D69
:102EF0003D3D3D3D3D3D3D3D3D3D3D3D3D3D3D3D02
:102F00003D3D3D3D3D3D3D3D3D3D3D3D3D3D3D3DF1
:102F10003D3D3D3D3D3D3D3D3D3D3D3D3D3D3D3DE1
:102F20003D3D3D3D3D3D3D3D3D3D3D3D3D3D3D3DD1
:102F30003D3D0D0A000000000D0A3D20202020200C
:102F40002020202020202020202020202020202081
:102F50002020202020202020202020202020202071
:102F60002020202020202020202020202020202061
:102F70002020202020202020202020202020202051
:102F80002020203D000000000D0A3D2020202020B0
:102F90002020202020202020202020202020202031
:102FA000202020202020D0A1D3E3B6F9B7C9D1BE7C
:102FB000B7C92020202020202020202020202020D1
:102FC0002020202020202020202020202020202001
:102FD0002020203D000000000D0A3D202020202060
:102FE00020202020202020202020202020202020E1
:102FF000C9EEDBDACAD0D9A4C0FBC2D4BBFAC6F78B
:10300000C8CBD3D0CFDEB9ABCBBE20202020202030
:1030100020A3A832303139A3A9202020202020204D
:103020002020203D000000000D0A3D20202020200F
:10303000202020202020202020202020202020535D
:10304000544D3332463130334342543620626F6F31
:10305000746C6F61646572B3CCD0F22020202020A4
:10306000202028B0E6B1BE20312E302E302920207D
:103070002020203D000000000D0A3D3D3D3D3D3D2E
:103080003D3D3D3D3D3D3D3D3D3D3D3D3D3D3D3D70
:103090003D3D3D3D3D3D3D3D3D3D3D3D3D3D3D3D60
:1030A0003D3D3D3D3D3D3D3D3D3D3D3D3D3D3D3D50
:1030B0003D3D3D3D3D3D3D3D3D3D3D3D3D3D3D3D40
:1030C0003D3D3D3D000000000D0ACAC7B7F1D0E804
:1030D000D2AAC9FDBCB6B3CCD0F2A3A8592F79208F
:1030E0006F72204E2F6E292CB5C8B4FD2035732089
:1030F00021202020202020202020202020202020CF
:1031000020202020202020202020202020202020BF
:103110002020203D00000000383100080000002081
:103120001C000000402B0008543100081C00002047
:10313000AC080000502B0008000000000000000058
:10314000000000000000000010000000010000006E
:0431500000A24A048B
:0400000508000131BD
:00000001FF
