:020000040800F2
:1040000098460020DD4100088DAD0008E59F0008BE
:10401000E9AB0008E159000849CD000800000000A4
:104020000000000000000000000000004541000802
:10403000896E00080000000089410008C1C0000826
:10404000F7410008F7410008F7410008F741000870
:10405000F7410008F7410008F7410008F741000860
:10406000976E0008F7410008F7410008F741000883
:104070001D6D00082D6D00083D6D0008F74100081A
:104080004D6D0008F7410008F7410008F7410008AE
:10409000F7410008F7410008F7410008F741000820
:1040A000F7410008F7410008F7410008F741000810
:1040B000F7410008F7410008F7410008F741000800
:1040C000F7410008F7410008F7410008F7410008F0
:1040D000F741000849C9000859C9000875C9000816
:1040E0008B6E0008F7410008F7410008F74100080F
:1040F000B5C10008F7410008F7410008F741000882
:10410000F7410008F7410008F7410008F7410008AF
:10411000F7410008F7410008F7410008F74100089F
:10412000F7410008F7410008F7410008F74100088F
:10413000DFF80CD000F088FF00480047D1E200080B
:1041400098460020224B19680868B0E8F00F80F309
:104150000988BFF36F8F4FF0000080F311884EF095
:104160000D0E70470000000006480068006880F3EC
:10417000088862B661B6BFF34F8FBFF36F8F00DF61
:1041800000BF00BF08ED00E0EFF30980BFF36F8FC1
:104190000F4B1A6820E9F00F106008B54FF050007F
:1041A00080F31188BFF34F8FBFF36F8F0BF056FA78
:1041B0004FF0000080F31188BDE8084019680868D6
:1041C000B0E8F00F80F30988BFF36F8F704700BF2E
:1041D00048000020EFF30580704700000648804744
:1041E00006480047FEE7FEE7FEE7FEE7FEE7FEE7DC
:1041F000FEE7FEE7FEE7FEE759C10008314100088F
:10420000202A04DB203A21FA02F00021704721FA2B
:1042100002F3D040C2F12002914008431946704792
:1042200040EA01039B0703D009E008C9121F08C038
:10423000042AFAD203E011F8013B00F8013B521EB8
:10424000F9D27047D2B201E000F8012B491EFBD22F
:1042500070470022F6E710B513460A460446194691
:10426000FFF7F0FF204610BD421E12F8013F002B61
:10427000FBD111F8013B02F8013B002BF9D170474B
:1042800030B505462A460B4612F8010B13F8014BD0
:1042900008B1A042F8D01CB1002802D06D1CF1E793
:1042A000284630BD421C10F8011B0029FBD1801AA2
:1042B000704710B5002200E0521C835C8C5CA34266
:1042C00001D1002BF8D1D8B2E1B2401A10BD30B5FF
:1042D00003461D783DB10A4612F8014B1CB1AC42B1
:1042E000FAD15B1CF5E7181A30BD00000FB400B519
:1042F0008DB010A909900B9000914FF0FF300A90FB
:1043000000200C9005480690054807906A4609A8C9
:104310000F9900F083FD0DB05DF814FB394E0008D5
:10432000574E00082DE9FF5F1D464FF0FF3BD5E9D2
:10433000014691465F464FF00008A9697F1C01982D
:104340008847296A824688470028F6D1BAF1FF3F9C
:104350000CD024F4C064002E19DD600614D5BAF127
:104360002B0F09D0BAF12D0F0ED103E0584604B03F
:10437000BDE8F09F44F48064A9697F1C01988847D8
:10438000761E8246002E02DDBAF1300F03D0B9F15D
:10439000000F26D032E0A969761E44F400747F1C19
:1043A000019888478246002E05DDBAF1780F06D0C5
:1043B000BAF1580F03D0B9F1000F10D01EE0B9F1D7
:1043C000000F02D0B9F1100F18D1A969761E24F49C
:1043D00000747F1C019888478246102002E0082064
:1043E00000E00A20814609E008FB0908A969761E59
:1043F00044F400747F1C019888478246002E05DD36
:104400004946504600F0F5FC0028EDDAE9690198CC
:104410008847A00502D46FF00100A8E7E00725D186
:10442000600613D5600502D5C8F1000000E04046E3
:1044300029680A1D2A600968220501D5087015E05F
:10444000220701D5088011E008600FE02868011DEF
:1044500029600068210502D580F8008006E0210768
:1044600002D5A0F8008001E0C0F8008038467EE761
:104470002DE9FF5FD2E901A74FF000089169994645
:104480001446DDF838B0464601988847054659EA93
:104490000B0005D009E0A169761C01988847054604
:1044A000216A284688470028F5D1681C03D05FEAB6
:1044B000CA7005D015E04FF0FF3004B0BDE8F09FA2
:1044C0002068011D2160D0F800800AE05FEACA7010
:1044D00001D108F8015BA169761C7F1E019888470D
:1044E0000546002F1ADD681C18D0B9F1000F0DD059
:1044F000E81705EBD060421120F01F0059F8221098
:104500002A1A012090400142E0D107E0BBF1000FE0
:10451000DCD1216A284688470028D7D0E169019874
:104520008847BBF1000F07D1002E05DD5FEACA7096
:1045300002D1002188F80010A068B84203DDBBF169
:10454000000F03D017B16FF00100B6E73046B4E7B3
:104550002DE9FF4F087881B09946FF2805D0491C06
:104560002D2804D00024002308E000230BE00124C0
:10457000F9E703EB830300EB4303491C0878FF28AA
:10458000F7D104B15B4200200090147801462D2C35
:1045900001D02B2C04D1521C2D2C12D000240094BD
:1045A00000251678FF2E0ED00A24A0FB04C801FBBC
:1045B0000481002700FB0711521C16EB0C00694117
:1045C000EFE70124EBE7994450EA01020ED0002402
:1045D000AA4D2646DFF8A88200F0F9FC82468B46F9
:1045E000B9F1000009DAC9F100071BE001980021C8
:1045F000C0E9001105B0BDE8F08F074612E0F807EA
:1046000007D022462B463046414600F016FA0646B1
:10461000884622462B461046194600F00EFA0446FC
:104620000D467F10002FEAD1B9F1000F3246434604
:104630005046594602DA00F072FA01E000F0FDF946
:10464000009A0AB181F00041019AC2E90001D1E764
:104650002DE9FF4F1F468DB0D7E901464FF0FF38D7
:104660002E2045464FF000090B90B9696D1C0E983D
:104670008847396A824688470028F6D1BAF1FF3F59
:104680000AD024F4D064002E11DDBAF12B0F08D02B
:10469000BAF12D0F0BD102E0404611B0ABE744F464
:1046A0008064B9696D1C0E9888478246761E6946FB
:1046B000600501D52D2000E02B208DF8000001F1D0
:1046C000010B0DF1200809E0B9696D1C0E988847AF
:1046D00082460F9844F40074761E0560002E02DDB9
:1046E000BAF1300FF0D00B998A453ED144F08004E6
:1046F00006E00F99681CA9F1010944F400740860F0
:10470000B9696D1C761E0E98884782463028F0D015
:104710002BE00B998A4505D1200603D444F0800490
:10472000761E18E0504609F085F908B30DF1130123
:10473000761E44F400748B4508D2AAF130000BF8C1
:10474000010B200607D5A9F1010003E0200602D4E1
:1047500009F101008146A00502D50F99681C086087
:10476000B9696D1C0E9888478246002ED1DC53E053
:10477000002E51DDBAF1650F02D0BAF1450F4BD1D1
:10478000A00549D5B9696D1C24F44074761E0E98B5
:1047900088478246002E0CDD2B2804D0BAF12D0F5D
:1047A00007D144F48074B9696D1C0E98884782461D
:1047B000761EE00501D52D2100E02B2108F8011B14
:1047C000CDF82C8021E00DF12901761E44F400740F
:1047D00088450CD2AAF1300010F0FF0088F80000E4
:1047E00002D10B99884509D908F1010806E0E005D6
:1047F00001D5244801E042F20F708146B9696D1C71
:104800000E98884782460F980560002E04DD5046BA
:1048100009F010F90028D6D1F9690E988847FF20D1
:104820008BF8000088F800000020069007904B46A7
:104830006A4608A906A8FFF78BFEA00502D46FF010
:1048400001002AE714F0240F0AD0E00714D1DDE9B3
:1048500006123868031D3B600068C0E900120BE0D7
:10486000DDE9060100F041FA0146E00704D13868AD
:10487000021D3A600068016028460EE700002440EF
:104880000000F03FF1D8FFFF80EA010210B502F00E
:104890000043400022D04A001FD0010E01EB1261FC
:1048A000C0F35600C2F3560240F4000042F4000286
:1048B000A0FB022000047F39140400D0401C50EA01
:1048C000124001D44000491EC2B20C0604EBD010C5
:1048D000401C4008802A02D003E0002010BD20F0D8
:1048E0000100002900DA0020184310BD2DE9FE4F19
:1048F000804681EA0300C00F0C46009021F0004181
:1049000023F00045B8EB0200A94105D240462146FC
:1049100090461C460B46024623F00040104347D009
:10492000270DC7F30A00C3F30A510290401A019001
:1049300040286BDAC3F3130040F4801B00989246C2
:1049400020B10023D2EB030A63EB0B0B019859460D
:10495000C0F14002504600F02BFA06460D46504684
:104960005946019A00F033FA10EB08006141002427
:1049700087EA115284EAE7731A4340D0009A62B37F
:10498000019A012A4FEA075215DC001B61EB020174
:104990004FF0004202EA0752CDE90042001C41F507
:1049A000801132462B4600F0ADFA03B0BDE8F08F1F
:1049B00040462146F9E7001B61EB0201001C41F56E
:1049C000801300185B412018A2F5001747EB030184
:1049D00040EAD570B6196D4111E06D084FEA360610
:1049E00045EAC0754FEA0752001B61EB0201001C4B
:1049F00041F5801149084FEA300000195141324613
:104A00002B4603B0BDE8F04F00F06DBA00980122CC
:104A100040000023D0EB020263EBE07300982146D4
:104A20004FEAE074B8EB000061EB0401E9E783F0C2
:104A300000435BE781F0004158E72DE9FE4F81EA32
:104A4000030404F0004421F0004100944FF0000BF7
:104A500023F0004350EA01045ED052EA03045BD025
:104A6000C3F30A54C1F30A552C44A4F2F33401945D
:104A7000A0FB0254C1F3130141F48011C3F31303EB
:104A800043F4801301FB024400FB034E840A970A9F
:104A900044EA815447EA8357A4FB076802958D0ACC
:104AA00005FB07854FEA932C04FB0C542705029D58
:104AB0004FEA065847EA1637B5EB08056EEB070CC8
:104AC000870E920E47EA811742EA8312A7FB020182
:104AD000B6EB0B0164EB00042B0D43EA0C335E18BC
:104AE00044EB1C50DA465146E7FB0201C5F31304C0
:104AF0004FEA0B3343EA14534FEA0432019C43EA72
:104B00000603A4F10C040294009CCDE900B400F06B
:104B1000F9F903B0BDE8F08F00200146F9E72DE96F
:104B2000F04D81EA030404F0004B21F000451446E7
:104B30004FF0000A23F0004150EA050220D054EA69
:104B400001021DD0C5F30A570246C5F31303C1F392
:104B50001300C1F30A5640F4801543F48013A7EB09
:104B60000608101BD64608F2FD3873EB050002D389
:104B700008F1010801E092185B41B8F1000F03DA77
:104B800000200146BDE8F08D00204FF4801106465C
:104B900084460EE0171B73EB050705D3121B63EB6E
:104BA000050306434CEA010C49084FEA300092180D
:104BB0005B4150EA0107EDD152EA030012D082EACC
:104BC000040083EA0501084305D0101BAB4106D25F
:104BD0000122002306E000224FF0004302E06FF0C4
:104BE000010253101AEB06004CEB085110EB0A00BF
:104BF00041EB0B01BDE8F04D00F075B90EB5C10FEA
:104C000080EAE0700844CA07002140F233438DE88F
:104C10000E000A460B4600F075F903B000BD0EB554
:104C200040F2334102910021CDE900110A460B46C2
:104C300000F068F903B000BD00F0004220F0004031
:104C4000C10DC0F3160040F400007F2901DA0020F6
:104C50007047962903DCC1F19601C84001E09639FE
:104C60008840002AF4D04042704720F00040C10D37
:104C7000C0F3160040F400007F2901DA00207047DD
:104C8000962903DCC1F19601C840704796398840E7
:104C90007047C1F30A5210B5C1F3130140F2FF335C
:104CA00041F480119A4201DA002010BD40F23343F2
:104CB0009A42A2F2334203DC5242FFF7A1FA10BD3E
:104CC000904010BD00F0004230F000400AD0C10D0D
:104CD00001F56071C0F3160042EA0151C2084007B5
:104CE0001143704700200146704701F0004330B483
:104CF00021F0004150EA010206D00A0DA2F56072CF
:104D0000C1F31301002A02DC30BC00207047440FBD
:104D100044EAC104C100E01830BC00EBC25000F00E
:104D2000ABB830B50B46014600202022012409E033
:104D300021FA02F59D4205D303FA02F5491B04FA54
:104D400002F52844151EA2F10102F1DC30BD2DE967
:104D5000F05F0546002092469B46884606468146FF
:104D600040241BE02846414647462246FFF748FAC2
:104D700053465A46C01A914110D31146184622464E
:104D800000F016F82D1A67EB01084F462246012065
:104D9000002100F00DF817EB00094E41201EA4F190
:104DA0000104DFDC484631462A464346BDE8F09F11
:104DB000202A04DB203A00FA02F1002070479140DB
:104DC000C2F1200320FA03F3194390407047202AD0
:104DD00006DBCB17203A41FA02F043EAE07306E023
:104DE00041FA02F3D040C2F1200291400843194633
:104DF00070473A2800D2303820F02002412A01D3EF
:104E0000A2F13700884201D34FF0FF307047000015
:104E1000026811441378016018467047D160044954
:104E200051610449116200211161114600F024B959
:104E3000114E00086D500008426842B1016811F837
:104E4000013B23B1521EC0E90012184670470121F0
:104E5000C160881E704742685AB1C368016843B98F
:104E600083688B4205D0491E521CC0E90012002005
:104E700070474FF0FF3070470029A8BF7047401CB3
:104E8000490008BF20F00100704710B4B0FA80FC60
:104E900000FA0CF050EA010404BF10BC704749B19D
:104EA000CCF1200421FA04F411FA0CF118BF01210D
:104EB00021430843A3EB0C01CB1D4FEA00614FEAED
:104EC000102042BF002010BC704700EBC3501044BC
:104ED0000029A4BF10BC7047401C490008BF20F047
:104EE000010010BC704710B5141E73F1000408DAFD
:104EF000401C41F1000192185B411A4301D120F09E
:104F0000010010BD2DE9F04D92469B4611B1B1FA5A
:104F100081F202E0B0FA80F220329046FFF748FFBB
:104F200004460F4640EA0A0041EA0B0153465A463E
:104F3000084313D0114653EA010019D0C8F14002CA
:104F40005046FFF75DF905460E4650465946424623
:104F5000FFF72EFF084305D0012004E02046394624
:104F6000BDE8F08D0020054346EAE0762C43374348
:104F70000A986305E40AA0EB08000022FD0A44EA4F
:104F800047540A3002D500200146E9E7010510190F
:104F90006941DDE9084500196941BDE8F04DA2E726
:104FA00070B521F0004303430CD0C1F30A5500242F
:104FB000D5EB040564EB0403D617AD1AB34102DB4D
:104FC0000020014670BD201841EB025170BD0EB5A6
:104FD00040F2334202920022CDE900221346FFF74D
:104FE00091FF03B000BDC1F30A52C1F3130140F2B7
:104FF000FF3341F480119A4202DA002001467047E3
:1050000040F233439A42A2F2334202DC5242FFF7AB
:10501000F7B8FFF7CDBE000030B5041E71F10004F3
:1050200004DB4FF00044404264EB0101141E73F1B5
:10503000000405DB1C464FF00043524263EB0403BF
:10504000994208BF904230BD064C074D06E0E0682B
:1050500040F0010394E8070098471034AC42F6D3BF
:10506000FFF76AF8A40C0108C40C0108C0B24FF4A1
:10507000F05100F0B7B900002DE9F34F8BB04FF0BD
:10508000000801F10C000C464FF0010B46460DF1F3
:10509000080A0190626901210198904705002DD00E
:1050A000252D2CD0216A8847C0B162690121019861
:1050B0009047216A88470028F7D1411E626901980C
:1050C000904700E0761CA1690B988847216A8847C1
:1050D0000028F7D1E1690B988847DBE7A1690B98B5
:1050E00088470746A84201D1761CD3E7E1690B98AF
:1050F00088477F1C02D1B8F1000F6FD046E100272E
:1051000062693D463946019890472A2804D1626970
:105110000121019890470125DFF8849262690121FD
:1051200001989047A0F130010A290AD24F45E5DCE9
:1051300007EB870100EB4107303FDFD445F0100556
:10514000ECE7E90601D46FF000476C280AD04C2840
:1051500014D0682815D06A280DD074281CD07A285D
:105160001AD01DE062690121019890476C2802D095
:1051700045F0040514E045F002050DE045F020057A
:105180000AE06269012101989047682802D045F041
:10519000080505E045F40065626901210198904722
:1051A000C4E9015765283DD019DC58287AD00CDCB9
:1051B000452837D004DC252826D0412831D131E0DC
:1051C00046282FD047282CD12CE05B2877D06128A7
:1051D00028D063287CD0642823D15AE0D0E06F28FF
:1051E00048D008DC66281DD067281BD0692821D04C
:1051F0006E2816D127E0702845D0732868D075280E
:1052000047D078280DD14DE0A1690B988847054615
:1052100025283FF469AFE1690B9888476D1C3FF47E
:105220006AAFB3E023466A466FF001000B99FFF7BF
:105230000FFA9EE045F040006060A80723464FF05B
:10524000000236D43EE0E8077FF447AF2068011D36
:1052500021600068290501D506701BE7290701D5E3
:10526000068017E7A90703D5F117C0E9006111E728
:1052700006600FE745F040006060A80723464FF046
:10528000080216D41EE040F60E0125EA0100606017
:1052900016E045F040006060A80723464FF00A0280
:1052A00007D40FE045F040006060A80708D523460A
:1052B00010226FF001000B99AFF3008059E007E076
:1052C000234610226FF001000B99FFF72BF850E0F6
:1052D0004FF000094F464B46632802D05B2806D0AA
:1052E00040E0E80601D40120A06001273AE06269AD
:1052F0000121019890475E2805D14FF001096269AC
:10530000494601989047216939B900210A46534618
:1053100043F82120491C0829FADBB0B3216969B997
:10532000C11700EBD16253110AEB830122F01F0277
:10533000821A01200B68904003430B6062690121CF
:10534000019890475D28E8D1B9F1000F09D00020FD
:10535000514651F82020D24341F82020401C082813
:10536000F7DB02AB224600976FF001000B99FFF7C5
:105370007FF800280CDA401C08D1BBF1000F05D0E3
:105380004FF0FF300DB0BDE8F08FFFE74046F9E782
:10539000E90701D108F1010806444FF0000B79E656
:1053A000CCCCCC0C70B5C1F30A5201F000450024FE
:1053B000C1F3130140F2FF3341F480119A4201DA44
:1053C000002070BD40F233439A42A2F2334203DC24
:1053D0005242FEF715FF00E090402C43F1D04042CE
:1053E00070BD00007F2801D9002208E0064A02EBC8
:1053F0005002C007127800D1120902F00F020120FA
:105400009040084070470000C808010870B58C182B
:1054100010F8015B15F0070301D110F8013B2A11C8
:1054200006D110F8012B03E010F8016B01F8016BB5
:105430005B1EF9D12B0705D40023521E0DD401F8B1
:10544000013BFAE710F8013BCB1A921C03E013F87A
:10545000015B01F8015B521EF9D5A142D8D30020AF
:1054600070BD0146072913D2DFE801F00406080ADF
:105470000C0E1000002070470120FCE70220FAE724
:105480000320F8E70420F6E70520F4E70620F2E71A
:105490000020F0E71FB5FF2001210B463522CDE9A2
:1054A0000041029052212C4802F0E2FE10B101208E
:1054B00004B010BD2078C0F38100032804DB2078FD
:1054C000C0F30110032801DA0620F1E70020039061
:1054D0000F20012103AA0B46CDE9002102903D22B5
:1054E00052211D4803F04CF808B10220E0E73220B9
:1054F00002F0D4FAFF200621184A0123CDE9002149
:10550000029055225221144802F0B2FE08B1012047
:10551000CEE7FF2106221148801D0123CDE901219C
:105520000090612252210C4802F0A2FE08B1012035
:10553000BEE7FF21022209480C300123CDE90121F9
:10554000009055225221044802F092FE08B1012039
:10555000AEE70020ACE7000090050020CE3500202B
:1055600070B586B004460D460026E5E0FF20012117
:1055700003AA0B46CDE900210290392252216F483F
:1055800002F076FE10B1012006B070BD9DF80C004F
:1055900007287AD2DFE800F004AEC0C1C2C3C5005C
:1055A00024B921200590042004902FE0012C04D17F
:1055B000242005900020049028E0022C04D124200F
:1055C00005900620049021E0032C04D121200590B1
:1055D000022004901AE0042C04D12420059003201A
:1055E000049013E0052C04D12120059001200490A3
:1055F0000CE0062C04D1212005900720049005E042
:10560000072C03D12420059005200490FF200121C0
:1056100005AA0B46CDE900210290412252214748BC
:1056200002F0AEFF08B10220AEE7FF20012104AA7C
:105630000B46CDE900210290422252213F4802F060
:105640009FFF08B102209FE700200590FF20012165
:1056500005AA0B46CDE9002102903E22522137488F
:1056600002F08EFF08B102208EE77DB3FF200621F5
:10567000334A0123CDE900210290552252212F48BF
:1056800002F07EFF10B102207EE74BE0FF210622F0
:105690002B48801D0123CDE9012100906122522178
:1056A000264802F06DFF08B102206DE7FF210222BB
:1056B00023480C300123CDE90121009067225221BB
:1056C0001E4802F05DFF08B102205DE7FFE70C20F5
:1056D0000590FF20012105AA0B46CDE9002102908B
:1056E0003D225221154802F04BFF08B102204BE742
:1056F000002049E720200590FF20012105AA0B4644
:10570000CDE9002102903F2252210C4802F038FFDF
:1057100008B1022038E707E006E005E004E00020D9
:1057200032E701E005202FE700BF701C06B2B6F596
:10573000C87F01DD042027E718E70000900500205E
:10574000CE3500201FB50446202003900F200121F4
:1057500003AA0B46CDE9002102903F2252210848BE
:1057600002F00EFF10B1022004B010BD41F28830EB
:1057700002F094F900212046FFF7F2FEF4E7000062
:10578000900500202DE9FE4F044689469246FF20F1
:1057900006211E4A0123CDE9002102900822522150
:1057A0001B4802F065FD10B10120BDE8FE8F1749CE
:1057B000B1F90000FFF722FA07460022154BFFF768
:1057C000AEF90546FFF791FA20601049B1F90200E1
:1057D000FFF714FA054600220E4BFFF7A0F9074623
:1057E000FFF783FAC9F800000849B1F90400FFF790
:1057F00005FA05460022074BFFF791F90746FFF728
:1058000074FACAF800000020CFE70000EE00002084
:1058100090050020000059402DE9FE4F04468946BE
:105820009246FF2006211E4A0123CDE90021029065
:105830001A2252211B4802F01BFD10B10120BDE8C5
:10584000FE8F1749B1F90400FFF7D8F90746002287
:10585000154BFFF764F90546FFF747FA206010493A
:10586000B1F90200FFF7CAF9054600220E4BFFF717
:1058700056F90746FFF739FAC9F800000849B1F9A7
:105880000000FFF7BBF905460022074BFFF747F979
:105890000746FFF72AFACAF800000020CFE7000009
:1058A000E800002090050020000030402DE9FE4F68
:1058B000044689469246FF2006211E4A0123CDE96F
:1058C00000210290142252211B4802F0D1FC10B199
:1058D0000120BDE8FE8F1749B1F90000FFF78EF9EE
:1058E00007460022154BFFF71AF90546FFF7FDF9A9
:1058F00020601049B1F90200FFF780F90546002247
:105900000E4BFFF70CF90746FFF7EFF9C9F8000057
:105910000849B1F90400FFF771F905460022074B69
:10592000FFF7FDF80746FFF7E0F9CAF8000000208E
:10593000CFE70000FA000020900500200000304072
:105940002DE9FE4F044689469246FF2006211E4A55
:105950000123CDE900210290082252211B4802F0C8
:1059600087FC10B10120BDE8FE8F1749B1F9000096
:10597000FFF744F907460022154BFFF7D0F805461C
:10598000FFF7B3F920601049B1F90200FFF736F9CB
:10599000054600220E4BFFF7C2F80746FFF7A5F9B0
:1059A000C9F800000849B1F90400FFF727F90546D6
:1059B0000022074BFFF7B3F80746FFF796F9CAF83E
:1059C00000000020CFE70000F40000209005002038
:1059D0000000304010B504462046FFF7B3FE10BD6E
:1059E00000BFFEE710B5002012490968087012498F
:1059F0000968486980471149096848698047104922
:105A00000968086980470F490968086980470E4995
:105A10000968886880470C490968C86880470B494D
:105A20000968886B80470A480068816801208847B8
:105A3000002010BDB8020020B4020020880200201F
:105A400038040020540400207004002014030020B7
:105A50007C05002010B5054909688868804704491D
:105A6000096888688047002010BD00008802002077
:105A7000B402002001490968486070477C04002096
:105A800010B50549096848688047044909684868AD
:105A90008047002010BD000088020020B4020020D2
:105AA00010B5084A1268D068074A1268D16888475A
:105AB000044A1268D068054A1268D16888470020F5
:105AC00010BD0000B802002088020020B4020020AF
:105AD0002DE9F04122490968C86A2249FEF7D4FE3F
:105AE0008046FFF7A9F80546B42068434FF49D713E
:105AF00090FBF1F40A4604FB02F14FF4A67201FB9D
:105B000002F000EBD0714910B42291FBF2F1642253
:105B100091FBF2F1124A1268D268571A4FF49D7243
:105B200004FB02F14FF4A67201FB02F000EBD0710E
:105B30004910B42291FBF2F1642291FBF2F1084A80
:105B40001268D2688E1808480068C16838468847CD
:105B500006480068C168304688470020BDE8F081EB
:105B6000B80200200000C84288020020B4020020D1
:105B70002DE9F0410E4909680868804705460D493E
:105B800009680868804706460A490968486A8047E4
:105B9000074607490968486A80473C1804EBD470F7
:105BA00040100549096808610020BDE8F081000047
:105BB000B402002088020020B802002010B50020A6
:105BC0001249096808701249096808698047114933
:105BD00009680869804710490968086980470F49C2
:105BE0000968086980470E490968886880470C4938
:105BF0000968C86880470B490968886B80470A486C
:105C00000068816800208847002010BDB80200208D
:105C1000B402002088020020380400205404002030
:105C200070040020140300207C0500202DE9F05FA3
:105C300042480068007830B941490968C86880471F
:105C40000020BDE8F09F3D490968C86A3D49FEF75C
:105C50001BFE8346FEF7F0FF044638490968886C4E
:105C60003849FEF711FE8346FEF7E6FF80463649C7
:105C70000968C8693349FEF707FE8346FEF7DCFF73
:105C8000074631480068C0692C49096888642C4877
:105C9000006842463946836C20469847B4206043EA
:105CA0004FF49D7190FBF1F671434FF4A67201FB26
:105CB00002F000EBD0714910B42291FBF2F16422A2
:105CC00091FBF2F11D4A1268D268A2EB010A4FF46F
:105CD0009D7171434FF4A67201FB02F000EBD0718D
:105CE0004910B42291FBF2F1642291FBF2F1134AC4
:105CF0001268D26801EB020910490968086A114963
:105D0000FEF7C2FD8346FEF797FF05460B48006885
:105D10008168A94205DB0A490968C86880470020F4
:105D20008FE70A480068C1685046884708480068FD
:105D3000C16848468847002083E70000B802002079
:105D4000140300200000C8427804002088020020CC
:105D5000B40200202DE9F05F4E480068007830B9A9
:105D60004D490968C86880470020BDE8F09F49494F
:105D70000968C86A4949FEF787FD8346FEF75CFF5C
:105D8000044644490968886C4449FEF77DFD834612
:105D9000FEF752FF074642490968C8693F49FEF7C6
:105DA00073FD8346FEF748FF06463D480068C0691C
:105DB000384909688864384800683A463146836C37
:105DC00020469847B42060434FF49D7190FBF1F555
:105DD00069434FF4A67201FB02F000EBD071491049
:105DE000B42291FBF2F1642291FBF2F1294A12688C
:105DF000D268A2EB010A4FF49D7169434FF4A67279
:105E000001FB02F000EBD0714910B42291FBF2F1DA
:105E1000642291FBF2F11F4A1268D26801EB020979
:105E20001C490968086A1D49FEF72EFD8346FEF7E6
:105E300003FF804617480068806848F6A041884202
:105E400013DB14480068C06A80F0004011490968FB
:105E5000C86200200F49096888600E480068807891
:105E6000401E40B20B49096888700A480068807873
:105E700018B909490968C86880470A480068C168B4
:105E80005046884708480068C1684846884700204F
:105E90006BE70000B8020020140300200000C84295
:105EA0007804002088020020B402002010B50346C8
:105EB0000020124C2468A06010480068C3600F489E
:105EC0000068C162500040B20C4C2468A0700020F1
:105ED0000A4C246860620A480068C069074C24685C
:105EE000A06206480068806A044C2468A06401200F
:105EF000024C24682070002010BD0000B802002071
:105F00007804002030B50446002C2CDD531A002AFA
:105F10000FDB41F2941082420BDCC000814208DCAE
:105F200047F60C30814204DB881A48F6A0452B1A4C
:105F300011E000290FDB41F2941081420BDCC0001C
:105F4000824208DC47F60C30824204DB881A48F6AD
:105F5000A045284443421C480068806818441A4DF4
:105F60002D68A8602CE0002C2ADA8B1A002A0FDB9F
:105F700041F2941082420BDCC000814208DC47F6FB
:105F80000C30814204DB881AA0F50C43A03B10E0E2
:105F900000290EDB41F2941081420ADCC0008242EB
:105FA00007DC47F60C30824203DB881A48F6A0452E
:105FB00043190548006880681844034D2D68A8609F
:105FC00001480068806830BDB802002010B5034663
:105FD0000020114C2468A0600F480068C3600E4880
:105FE0000068C1620C480068026200200A4C246804
:105FF00060620A480068C069074C2468A0620648CD
:106000000068806A044C2468A0640120024C246863
:106010002070002010BD0000B8020020780400208D
:10602000002012490968C8601049096808610F49D1
:10603000096848610D49096808620C4909684862A5
:106040000A490968C8620949096808630749096873
:106050000864064909684864044909688864034972
:10606000096848600149096888607047B8020020E3
:1060700070B5034600240025551AC82D01DD1846C9
:1060800070BD0F480068C06968434FF47A7690FB92
:10609000F6F4002B01DA234400E01B1B502B0DDC2F
:1060A00013F1500F0ADB002B03DA6FF04F000346A9
:1060B000E6E7002B02DD50200346E1E71846DFE764
:1060C000DC03002000B50248006804F060FE00BD5B
:1060D000DC0300202DE9F04F89B0404800680078CB
:1060E00038B93F490968C8688047002009B0BDE851
:1060F000F08F3A490968886C3A49FEF7C5FB0746B4
:10610000FEF79AFD814638490968C8693549FEF7A6
:10611000BBFB0746FEF790FD824633480068C06926
:106120002E49096888642E4800684A465146C36B68
:106130004FF4B4709847294A126850682B4A126885
:1061400051688847089026490968086B80470446CB
:10615000224800684068642190FBF1F00190FEF74E
:106160004DFDCDE9020108F00BF8CDE904011B4912
:1061700009688969601AFEF752FD0746DDE90423C4
:10618000FEF75BFCCDE90601FEF783FD834613486D
:106190000068846111480068C06958440F49096863
:1061A000C8610F490968486C804706460B4800687B
:1061B000C6600A490968C868094909680A6C0899EB
:1061C000904705460A4A68681268D1688847094AB4
:1061D00028681268D1688847002087E7B802002045
:1061E000140300200000C84278040020700400203E
:1061F00088020020B402002030B50346541AB42BA4
:1062000041D1B2F5617F0CDDB2F5E16F09DC11F52A
:10621000617F06DA11F5E16F03DB881A00F561642E
:106220000EE012F5617F0BDA12F5E16F08DBB1F5D4
:10623000617F05DDB1F5E16F02DC881AA0F56164CC
:106240003848006840682044364D2D6868603548FD
:106250000068406844F25065A84206DD3148006895
:106260004068401B2F4D2D6868602E4800684068CC
:106270002D4DA84207DA2B48006840686D4228443B
:10628000284D2D686860B3F5B47F46D1002A0FDB36
:1062900041F2941082420BDCC000814208DC47F6D8
:1062A0000C30814204DB881A48F6A0452C1A11E014
:1062B00000290FDB41F2941081420BDCC0008242C6
:1062C00008DC47F60C30824204DB881A48F6A04509
:1062D000284444421348006840682044114D2D680A
:1062E000686010480068406848F6A045A84206DD8E
:1062F0000C4800684068401B0A4D2D6868600948DA
:1063000000684068094DA84207DA064800684068FE
:106310006D422844034D2D6868600248006840685B
:1063200030BD0000B8020020B0B9FFFF6073FFFF6E
:106330000246002A29DB002912DB5018B0F5FA7F4B
:1063400008DD4800C0F5FA70264B18604FF4FA706B
:10635000586044E05018234B5860501A18603EE0D3
:1063600000293CDC501AB0F5FA7F08DD480000F542
:10637000FA701C4B58604FF4FA7018602FE05018F8
:10638000184B5860501A186029E0002A27DC0029B1
:1063900011DB501A10F5FA7F07DA4800A0F5FA7001
:1063A000104B58601048186019E050180D4B586099
:1063B000501A186013E0002911DC501810F5FA7F0C
:1063C00008DA48004042A0F5FA70064B186006480B
:1063D000586004E05018034B5860501A1860014888
:1063E00070470000180300200CFEFFFF70B5044644
:1063F0000D4611480068C4600F48006845610020E0
:106400000D490968C8610D480068C0690A490968F2
:10641000886209480068806A0749096888640849F1
:106420000968086B804704490968886101200249AE
:1064300009680870002070BDB802002078040020B0
:1064400014030020F0B5014600220023002400259B
:1064500044F25060814201DDA1EB40012F488142AE
:1064600002DA48F6A0400144002901DA4B4200E07C
:106470000B46B3F5FA6F02DD0224002514E0B3F5F4
:106480007A7F09DA0124022525480068806A0844D9
:10649000234E3668B06207E0012421480068806A14
:1064A00008441F4E3668B0621D480068006A6843A1
:1064B0001B4E3668B66A7043194E3668F6696643F5
:1064C00006FB0100164E3668766A154F3F687F69F5
:1064D000DF1B06FB0700134E90FBF6F21048006826
:1064E000026012F5FA7F01DD104600E00E48B0F5BB
:1064F000FA7F06DA12F5FA7F01DD104603E00A485A
:1065000001E04FF4FA70064E3668F0600448006807
:10651000416103480068C068F0BD0000B0B9FFFFEA
:106520001C040020A08601000CFEFFFF00B50248FD
:10653000006804F02CFC00BD1C0400202DE9F04193
:1065400004460D4616461F462078652830D00CDCE0
:10655000522839D004DC43282ED0482840D12FE0DF
:1065600061281DD063283BD11EE0692814D004DCCB
:1065700067280DD0682833D104E06E2828D074280D
:106580002ED129E01848A521C2681848904727E075
:1065900001201749087023E00220154908701FE008
:1065A0000320134908701BE00D201149087017E003
:1065B00004200F49087013E013200D4908700FE004
:1065C00016200B4908700BE019200949087007E0F4
:1065D0000E200749087003E00F200549087000BF2E
:1065E00000BF0020BDE8F081C8000020440B010876
:1065F000E10000202DE9F04104460D4616461F46F5
:106600000B481321C2680BA090474FF47A7001F039
:1066100045FA00224FF480510B4801F023FD00227F
:106620004FF40061084801F01DFD0020BDE8F08135
:10663000C80000200A0D0ABEAFB8E6A3BABCB4BDBC
:10664000ABB6CFB5E70D0A000014014013480D2189
:10665000C26813A090474FF4FA7001F01FFA00BF10
:1066600000BF00BF00BF00BFBFF34F8F00BF00BF20
:1066700000BF0F48006800F4E0600E490843001DA9
:106680000B49086000BF00BF00BFBFF34F8F00BFC2
:1066900000BF00BF00BF00BFFDE70000C800002032
:1066A0000A0D0AD5FDD4DAD6D8C6F40D0A000000CA
:1066B0000CED00E00000FA052DE9F04104460D461E
:1066C00016461F462078682802D0732874D105E04A
:1066D0003B481F21C2683BA090476DE038480169E4
:1066E0000120884736483021C2683EA0904760E0CC
:1066F00001224949494803F059FB142007F07EFE66
:10670000454800781B2812D12D4801690020884790
:106710002B480C21C26842A09047012244480168DE
:106720003E4803F043FB0B204249087042E03A48E0
:106730000078712825D004DC612814D0642827D182
:1067400018E0732808D0772822D100203A49086041
:1067500005203849087028E00020374908600620E5
:106760003449087021E0002033490860072031498E
:1067700008701AE000203049086008202D49087090
:1067800013E000202C4908600B202A4908700CE017
:1067900029480068401C28490860084600681928F4
:1067A00002DB0B202349087000BF00BF00201A49FC
:1067B00008709DE700BF00BF00BF0020BDE8F0816A
:1067C000C80000202073A3BABFAACABCD2A3BFD8F6
:1067D000A3AC657363A3BACDCBB3F6D2A3BFD80D78
:1067E0000A3E3E000D0A20202020202020202020CC
:1067F0002020202020202020202020202020202099
:10680000202020BCFCC5CC203A7720732061206476
:1068100020710D0A00000000E00000206406002046
:106820000D0A2D3ECDCBB3F60D0A3E3E0000000012
:10683000C4000020E2000020E40000202DE9F04127
:106840008CB004460D4616461F462078682802D0B4
:106850006C2832D105E01B484721C2681A4890478E
:106860002BE000200B900A9009900BAA17A1284654
:10687000FDF73CFD0AAA15A13046FDF737FD09AA30
:1068800012A13846FDF732FD114800680368DDE9C2
:1068900009210B989847099800900EA101A8DDE9FD
:1068A0000A3206F09BFC01A8FDF7FCFC8046054877
:1068B0004146C26801A8904700BF00BF00200CB04D
:1068C000BDE8F081C8000020FC0A01082564000032
:1068D000700400200D0A4B503A256420204B493AA1
:1068E00025642020204B443A25640D0A0000000056
:1068F0002DE9FE4304460D4616461F4620787128B2
:106900001CD00CDC63287CD004DC38287AD06128C9
:1069100013D146E0642862D06828F9D108E07228D3
:1069200071D0732825D074286ED07728F0D109E073
:106930005A48B721C2685A489047ABE00B205949E2
:106940000870A7E000200290019002AA56A12846F4
:10695000FDF7CCFC01AA54A13046FDF7C7FC534813
:1069600000684269DDE90110904709204D4908702F
:1069700090E000200290019002AA4BA12846FDF76A
:10698000B5FC01AA48A13046FDF7B0FC47480068B5
:106990004269DDE9011040429047092041490870F1
:1069A00078E0002002900190009002AA3EA12846C3
:1069B000FDF79CFC01AA3EA13046FDF797FC6A4614
:1069C0003BA13846FDF792FC384800688369DDE951
:1069D0000021029898470A20324908705AE00020A6
:1069E00002900190009002AA2FA12846FDF77EFC9C
:1069F00001AA2FA13046FDF779FC6A462CA1384642
:106A000003E034E011E02EE040E0FDF76FFC019878
:106A100080F000482548006883694146009A029842
:106A200098470A201F49087034E000200290019026
:106A3000009002AA1CA12846FDF758FC01AA1CA13F
:106A40003046FDF753FC6A4617A13846FDF74EFC69
:106A500016480068436DDDE90021029898471A2026
:106A60001049087016E011201249087012E0142035
:106A7000104908700D4800684FF47A7142694FF46C
:106A80009670904709200749087003E017200949CC
:106A9000087000BF00BF0020BDE8FE83C8000020D2
:106AA000EC0B0108E2000020256400001403002024
:106AB00025660000E100002010B5002000F006F877
:106AC00010BD10B5012000F001F810BD10B504464E
:106AD000012C1FD1214909684869804700EB8000DB
:106AE00040004FF49D714843CD2148430321B0FB42
:106AF000F1F07D21B0FBF1F0C900B0FBF1F01849D5
:106B000009684968084416490968486015490968D0
:106B1000086A8047FCB9144909684869804700EB56
:106B2000800040004FF49D714843CD21484303212C
:106B3000B0FBF1F07D21B0FBF1F0C900B0FBF1F04A
:106B40000A490968496808440849096848600849C9
:106B50000968086A8047002010BD0000500200202C
:106B60005C020020B4020020300200205802002005
:106B7000880200202DE9F84305460024A04600279E
:106B80000026A14650480068854204D14F4800685D
:106B90004169684688474E480068854204D14D489F
:106BA0000068416968468847BDF80200B0F57A7F01
:106BB00004DB4FF009090120687003E04FF003097E
:106BC000002068704048006885423AD14248006819
:106BD0004249884202D101F1340402E03E48006893
:106BE000041F00262BE03D48844215D100F13404F7
:106BF00000683A49496B884208D8384800683749E4
:106C0000496BC1F5803100EB010816E0334800689C
:106C10002168A0EB010810E0241FD4E9001088428D
:106C200006D8D4E90010C1F5803100EB010804E07A
:106C3000D4E90010A0EB010800BF4744761C4E4584
:106C4000D1DB2348006885423AD1254800682549B0
:106C5000884202D101F1340402E021480068041F97
:106C600000262BE01F48844215D100F1340400684F
:106C70001C49496B884208D81A4800681949496B71
:106C8000C1F5803100EB010816E016480068216864
:106C9000A0EB010810E0241FD4E90010884206D8B8
:106CA000D4E90010C1F5803100EB010804E0D4E91B
:106CB0000010A0EB010800BF4744761C4E45D1DB15
:106CC0003846BDE8F8830000E8010020AC01002050
:106CD000D8010020C80100200C0200201836002036
:106CE00004020020DC3500202DE9F04705460E4661
:106CF00017469846DDF820900024102007F048FB46
:106D00000446257066706780C4F80480C4F8089053
:106D10000020E0602046BDE8F087000010B5024882
:106D200000F05CFC10BD0000AC07002010B502486C
:106D300000F054FC10BD0000F007002010B5024820
:106D400000F04CFC10BD00002407002010B50248E4
:106D500000F044FC10BD00006807002030B590F83A
:106D600040500124AC40C56B6C60046863604468AB
:106D7000102C04D10468A2600468E16003E0046898
:106D8000A1600468E26030BD47203C490968087092
:106D90002C203A490968487038490968087237490F
:106DA000096888743549096881F820003349096801
:106DB00081F822003149096881F830002F490968BB
:106DC00081F832002D49096881F838002B4909689B
:106DD00081F83A002949096881F840002749096883
:106DE000087456202549096848744E2023490968CB
:106DF00081F8210045202149096881F831004E20A1
:106E00001E49096881F8390049201D490968087040
:106E10002C201B4909680872194909680874184927
:106E2000096808761649096881F82000144909683C
:106E300081F828001249096881F830001049096872
:106E400081F838000E49096881F840000C4909684A
:106E500081F848000A49096881F85000432009492F
:106E6000096808702C2007490968087205490968F3
:106E7000087404490968087670470000740400200B
:106E8000780400207C040020704710B54FF40040C7
:106E900000F03AFF10BD10B5042000F035FF10BD22
:106EA0007047000010B50248006807F0DFF910BD18
:106EB000D404002070B508480468002506E0E568A1
:106EC000E068C068E060284607F0D0F9E068002874
:106ED000F5D1E06070BD0000D404002001490968CC
:106EE000086070478C04002002490968C1F86200FC
:106EF000704700008C0400200648006800780128D4
:106F000000D1704703480068007808B90020F8E70E
:106F10000020F6E7B8020020014800787047000022
:106F20004405002070B5DDE90445024E3668326242
:106F3000736270BD8C04002070B5DDE90445064E17
:106F40003668B062F162044E366832637363024E93
:106F50003668B463F56370BD8C04002070B5DDE95C
:106F60000445064E3668B060F160044E3668326102
:106F70007361024E3668B461F56170BD8C04002007
:106F800001490968086470478C04002005480068BE
:106F900090F8A401012803D102480068C830704766
:106FA0000020FCE7100500202DE9F04704460D46BF
:106FB00016461F46DDE908890B48006840F8454F32
:106FC00045600948006840F84E6F47600648006811
:106FD000C0F857804046FDF748FE03490968A1F80C
:106FE0005C00BDE8F08700008C04002010B504466A
:106FF0004E2C03D1002004F019FA1CE0452C03D1DB
:10700000012004F013FA16E0412C03D1022004F011
:107010000DFA10E0442C03D1032004F007FA0AE033
:10702000462C03D1042004F001FA04E0522C02D1D2
:10703000052004F0FBF910BD10B50446562C03D111
:10704000002004F0FBF904E0412C02D1012004F0FF
:10705000F5F910BD01490968486070478C040020AB
:1070600070B504460D464E2C03D1002004F0D6F92D
:1070700004E0532C02D1012004F0D0F9452D03D1B6
:10708000002004F0E3F904E0572C02D1012004F0C1
:10709000DDF970BD0448016800E0C968C8680028CF
:1070A000FBD1087870470000D404002000B50346E7
:1070B00019460248006800F00FF800BD900100205A
:1070C00000B5002000F0F0F800BD014600204B881C
:1070D0008A8803EB024070470246107820B908887E
:1070E00040F00100088006E01078012803D10888EC
:1070F00020F001000880507820B9088840F0020094
:10710000088006E05078012803D1088820F00200AA
:107110000880907820B9088840F00400088006E0D4
:107120009078012803D1088820F004000880D078E6
:1071300020B9088820F01800088012E0D0780128D3
:1071400006D1088820F0100040F00800088008E010
:10715000D078022805D1088820F0080040F01000FF
:107160000880D0884880002070470000044B1B68CE
:107170005880034B1B685960014B1B689A6070472D
:10718000880400202DE9F04105460E461746984632
:107190000F480068C06810B90020BDE8F0810C48B5
:1071A0000068C4680A480068C068C068084909687F
:1071B000C860607828706088308060683860A06837
:1071C000C8F80000204607F051F80120E5E700006C
:1071D000D404002002490968C1F85E00704700002D
:1071E0008C04002001480078704700003C05002016
:1071F00003460B480068C06808B90020704708487B
:107200000068C0684078187005480068C068408809
:10721000088003480068C068406810600120EDE7FE
:10722000D404002001480068807870475005002091
:1072300001480068007870475005002000B50346FB
:10724000194602480068FFF747FF00BD840100208F
:1072500000B5012000F028F800BD000010B504467C
:107260000D480068C06808B9002010BD0A480068D1
:10727000C0684078207008480068C068408808806E
:1072800005480068C0684068106003480068C0682E
:10729000806818600120E8E7D404002001480068F5
:1072A000407870475005002001460020012902D196
:1072B000034A1268506811B9024A12685068704750
:1072C0005C0200205802002005480068C06808B928
:1072D0000020704702480068C0684078F9E7000065
:1072E000D404002030B589B00446002514B9681EC6
:1072F00009B030BD2046FCF7D5FF0A2802D24FF076
:10730000FF30F5E71EA12046FCF7BAFF050001D1CA
:10731000401EEDE71C480068393007AB1A49096880
:107320003431194A12683132CDE9041303920690C0
:10733000154800682830144909682131124A12683A
:107340001832CDE9002102900F480368113302681A
:107350000C320EA12846FCF7C9FF16A12046FCF707
:107360008FFF050001D1401EC2E7074803683C3388
:1073700008AA12A12846FCF7B9FF0020B8E70000D0
:1073800024474E524D4300007404002024474E52BF
:107390004D432C25662C25632C256C662C25632CEF
:1073A000256C662C25632C25662C2C25642C2C2C16
:1073B00025632C0024474E475354000024474E4772
:1073C00053542C25642E30302C25642C00000000F2
:1073D0000149096848607047740400200146002292
:1073E00091F82100022808D00420886300BF002003
:1073F00081F8200000BF012070470868006820F075
:107400000E000B6818600868006820F001000B6827
:10741000186091F8403001209840CB6B58600120F3
:1074200081F8210000BF002081F8200000BF104635
:10743000E2E7000070B50446002594F82100022818
:1074400003D00420A0630125C1E02068006820F07B
:107450000E00216808602068006820F001002168A3
:1074600008605C492068884252D95A4978392068B6
:10747000884201D1012047E056496439206888429A
:1074800001D1102040E0534950392068884201D191
:10749000801539E04F493C392068884201D1801479
:1074A00032E04C4928392068884202D14FF48030BC
:1074B0002AE0484914392068884202D14FF48010EC
:1074C00022E044492068884201D140041CE042493E
:1074D0002068884201D1012016E03F49143120681C
:1074E000884201D110200FE03B49283120688842B2
:1074F00001D1801508E038493C312068884201D12B
:10750000801401E04FF480303349091F086051E0D6
:10751000304978392068884201D1012047E02D495F
:1075200064392068884201D1102040E0294950394F
:107530002068884201D1801539E026493C3920680D
:10754000884201D1801432E02249283920688842DB
:1075500002D14FF480302AE01E4914392068884255
:1075600002D14FF4801022E01A492068884201D1EC
:1075700040041CE018492068884201D1012016E02F
:10758000154914312068884201D110200FE01249BA
:1075900028312068884201D1801508E00E493C312D
:1075A0002068884201D1801401E04FF480300949FD
:1075B00080394860012084F8210000BF002084F851
:1075C000200000BF606B10B12046616B88472846E1
:1075D00070BD0000800002400804024070B50446FF
:1075E000E06B05682068066894F840100420884025
:1075F0002840002875D006F004000028FAD0206842
:10760000006800F0200028B92068006820F004001D
:1076100021680860D5492068884254D9D34978390F
:107620002068884201D1042049E0D04964392068AB
:10763000884201D1402042E0CC495039206888423C
:1076400001D100153BE0C9493C392068884202D18C
:107650004FF4804033E0C54928392068884202D180
:107660004FF480202BE0C14914392068884202D1B0
:107670004FF4800023E0BD492068884201D1C00456
:107680001DE0BB492068884201D1042017E0B849B9
:1076900014312068884201D1402010E0B4492831DB
:1076A0002068884201D1001509E0B1493C312068C9
:1076B000884202D14FF4804001E04FF48020AC4971
:1076C000091F086054E0A94978392068884201D12F
:1076D00004204AE0A54964392068884202D140204C
:1076E00043E04CE0A14950392068884201D100159F
:1076F0003BE09E493C392068884202D14FF48040EB
:1077000033E09A4928392068884202D14FF480201A
:107710002BE0964914392068884202D14FF480004A
:1077200023E092492068884201D1C0041DE09049BD
:107730002068884201D1042017E08D491431206867
:10774000884201D1402010E08949283120688842D0
:1077500001D1001509E086493C312068884202D1F8
:107760004FF4804001E04FF4802080498039486028
:10777000E06A002802D02046E16A8847F4E094F8E5
:107780004010022088402840002871D006F00200F6
:107790000028FAD02068006800F0200040B9206876
:1077A000006820F00A0021680860012084F82100A8
:1077B0006E492068884254D96C49783920688842DB
:1077C00001D1022049E0694964392068884201D129
:1077D000202042E0654950392068884201D1401597
:1077E0003BE062493C392068884202D14FF40050A6
:1077F00033E05E4928392068884202D14FF40030D6
:107800002BE05A4914392068884202D14FF4001005
:1078100023E056492068884201D180041DE0544984
:107820002068884201D1022017E0514914312068B4
:10783000884201D1202010E04D492831206888423B
:1078400001D1401509E04A493C312068884202D103
:107850004FF4005001E04FF400304549091F086023
:1078600054E0424978392068884202D102204AE037
:1078700057E03E4964392068884201D1202042E027
:107880003A4950392068884201D140153BE03749D8
:107890003C392068884202D14FF4005033E033492C
:1078A00028392068884202D14FF400302BE02F495C
:1078B00014392068884202D14FF4001023E02B498C
:1078C0002068884201D180041DE02949206888424F
:1078D00001D1022017E0264914312068884201D1E5
:1078E000202010E0224928312068884201D140152B
:1078F00009E01F493C312068884202D14FF4005012
:1079000001E04FF4003019498039486000BF002081
:1079100084F8200000BFA06A30B32046A16A8847DF
:1079200022E094F84010082088402840E0B106F09A
:107930000800C8B12068006820F00E0021680860C7
:1079400094F8401001208840E16B48600120A0635A
:1079500084F8210000BF002084F8200000BF206BC5
:1079600010B12046216B884770BD000080000240A6
:10797000080402400146002209B9012070471E4B4D
:10798000086898420BD21D4B0868C01A1423B0FB3C
:10799000F3F08000086419480838C8630AE0164B01
:1079A0000868C01A1423B0FBF3F080000864124882
:1079B0000838C863022081F821000868026843F68D
:1079C000F0708243D1E901031843CB6818430B6977
:1079D00018434B6918438B691843CB69184302431A
:1079E0000868026000208863012081F821000020DF
:1079F00081F8200000BFC1E70804024008000240EF
:107A00002DE9F04104460D4616461F464FF000088A
:107A100000BF94F82000012802D10220BDE8F081C7
:107A2000012084F8200000BF94F8210001282CD107
:107A3000022084F821000020A0632068006820F064
:107A40000100216808603B46324629462046FFF780
:107A500085F9E06A30B12068006840F00E002168C6
:107A600008600BE02068006820F0040021680860CE
:107A70002068006840F00A002168086020680068FB
:107A800040F001002168086006E000BF002084F893
:107A9000200000BF4FF002084046BFE770B5044623
:107AA00000F0E6FA06462546681C10B10448007846
:107AB000054400BF00F0DCFA801BA842FAD370BD79
:107AC000400000202DE9F04102460B4600208BE0EB
:107AD0000127874007EA030100297DD0464F4FEA7E
:107AE000900C57F82C4087074FEA177C0F2707FAAE
:107AF0000CF73C40414FBA4201D1002719E0404FFA
:107B0000BA4201D1012714E03E4FBA4201D1022707
:107B10000FE03D4FBA4201D103270AE03B4FBA4282
:107B200001D1042705E03A4FBA4201D1052700E010
:107B300006274FEA807C4FEA1C7C07FA0CF7A74225
:107B400030D187074FEA177C0F2707FA0CF42A4F2A
:107B50004FEA900C57F82C70A743DFF89CC04FEA0F
:107B600090084CF828702B4F3F688F43DFF8A4C073
:107B7000CCF800700CF104073F688F430CF1040C43
:107B8000CCF800700CF104073F688F430CF1040C33
:107B9000CCF800700CF104073F688F430CF1040C23
:107BA000CCF80070FF2901D8174600E0171D3D46AC
:107BB000FF2901D8870002E0A0F10807BF003E4678
:107BC0002F684FF00F0C0CFA06FC27EA0C074FF059
:107BD000040C0CFA06FC00E005E047EA0C072F60F5
:107BE000D7688F43D760401C23FA00F7002F7FF43B
:107BF0006FAFBDE8F08100000800014000080140BF
:107C0000000C014000100140001401400018014028
:107C1000001C014000040140B0F5004F2FD1314954
:107C20000968496A304A126811602F490968091DBC
:107C30002D4A1160114609682C4A1268914202D1FE
:107C40002B49294A11602B49096849884FF6FF7270
:107C5000914206D1274909688988491C254A12683A
:107C60009180244909684988491C224A1268518038
:107C70001E4909680968491C1C4A126811600428D9
:107C80002FD118490968496A1B4A126811601A49BC
:107C90000968091D184A116011460968174A1268D7
:107CA000914202D11649144A11601649096849885F
:107CB0004FF6FF72914206D1124909688988491C22
:107CC000104A126891800F4909684988491C0D4A79
:107CD00012685180094909680968491C074A1268F5
:107CE00011607047240600200402002008020020D2
:107CF000DC350020D80100200C02002010020020FA
:107D000018360020E801002010B504460448006839
:107D1000204020B1024804602046FFF77DFF10BDDF
:107D2000140401402DE9F847024600239C467BE1FC
:107D30004FF0010808FA03F4D1F8008008EA0400C3
:107D4000A0427DD1DFF8F4A2D1F80480A8EB0A09A3
:107D5000D0453AD014DCB8F1030F50D009DCB8F1AB
:107D6000000F31D0B8F1010F1CD0B8F1020F49D18A
:107D700020E0B8F1110F18D0B8F1120F42D11EE077
:107D8000B9F5881F25D006DCB9F5803F20D0B9F5BC
:107D9000801F37D11AE0B9F5001F18D0B9F5041FBC
:107DA00030D117E0D1F80CC02DE0D1F80C8008F1EB
:107DB000040C28E0D1F80C8008F1080C23E0D1F87D
:107DC0000C8008F10C0C1EE000BF00BF00BF00BF1C
:107DD00000BF00BFD1F80880B8F1000F02D14FF00A
:107DE000040C0BE0D1F80880B8F1010F03D14FF07B
:107DF000080C146102E04FF0080C546103E04FF0EE
:107E0000000C00E000BF00BFFF2801D8904601E051
:107E100002F104084646FF2802D84FEA830803E02F
:107E2000A3F108084FEA88084746D6F800804FF0CB
:107E30000F0909FA07F928EA09080CFA07F900E01E
:107E40007AE048EA0908C6F80080D1F8048008F012
:107E50008058B8F1805F6FD100BFDFF8E481D8F8B7
:107E6000188048F00108DFF8D891C9F81880C84692
:107E7000D8F8188008F00108CDF8008000BF00BFD6
:107E80004FEAB9384FEA930958F829504FEA8378F6
:107E90004FEA18794FF00F0808FA09F825EA0805A3
:107EA000DFF8A081424502D14FF0000824E0DFF85E
:107EB0009881424502D14FF001081DE0DFF88C8126
:107EC000424502D14FF0020816E0DFF884814245B6
:107ED00002D14FF003080FE0DFF87881424502D16C
:107EE0004FF0040808E0DFF87081424502D14FF0FE
:107EF000050801E04FF006084FEA83794FEA197947
:107F000008FA09F848EA0505DFF850814FEA9309B5
:107F100048F82950D1F8048008F48038B8F5803F3B
:107F20000BD1DFF83C81D8F8008048EA0008DFF880
:107F30003091C9F800800AE075E0DFF82481D8F8B4
:107F4000008028EA0008DFF81891C9F80080D1F80D
:107F5000048008F40038B8F5003F0ED1DFF8008146
:107F600008F10408D8F8008048EA0008DFF8F0902B
:107F700009F10409C9F800800DE0DFF8E48008F198
:107F80000408D8F8008028EA0008DFF8D49009F146
:107F90000409C9F80080D1F8048008F48018B8F505
:107FA000801F0ED1DFF8B88008F10808D8F80080EB
:107FB00048EA0008DFF8A89009F10809C9F800802C
:107FC0000DE0DFF89C8008F10808D8F8008028EA66
:107FD0000008DFF88C9009F10809C9F80080D1F891
:107FE000048008F40018B8F5001F0ED1DFF8708087
:107FF00008F10C08D8F8008048EA0008DFF8609023
:1080000009F10C09C9F800800DE0DFF8548008F18F
:108010000C08D8F8008028EA0008DFF8449009F13D
:108020000C09C9F800805B1CD1F8008028FA03F81D
:10803000B8F1000F7FF47CAEBDE8F88700001110A6
:108040000010024000080140000C014000100140F7
:108050000014014000180140001C014008000140CC
:10806000000401400AB1016101E00B0403617047A3
:1080700001480068704700003800002010B5044631
:108080000CB9012010BD242084F83D002068006850
:1080900020F0010021680860204600F023FB00204A
:1080A000206484F83D00206384F83E0000BF84F81B
:1080B0003C0000BF00BFE5E770B504460CB90120E5
:1080C00070BD94F83D0028B9002084F83C0020469B
:1080D00000F020FB242084F83D002068006820F098
:1080E00001002168086000F063FD05465C49606896
:1080F000884206D85B48854201D2012007E0002073
:1081000005E05948854201D2012000E00020012805
:1081100000D1D5E75548B5FBF0F62068406820F05F
:108120003F003043216848604D496068884201D86B
:10813000701C07E04FF4967070434FF47A71B0FBF7
:10814000F1F0401C2168096A21F03F0108432168D1
:10815000086243496068884214D8681E6168490013
:10816000B0FBF1F0401CC0F30B00042801D2042046
:108170003DE0681E61684900B0FBF1F0401CC0F3AF
:108180000B0034E0A06838B9681E616801EB41015A
:10819000B0FBF1F0401C0AE0681E616801EBC1020F
:1081A00002EB0111B0FBF1F0401C40F48040C0F341
:1081B0000B0008B901201AE0A06848B9681E616880
:1081C00001EB4101B0FBF1F0401CC0F30B000CE0EF
:1081D000681E616801EBC10202EB0111B0FBF1F016
:1081E000401CC0F30B0040F4804040F40040216884
:1081F000C9694CF6FF72914308432168C861D4E90C
:10820000070108432168096821F0C001084321687B
:108210000860D4E9031008432168896848F2FF32F6
:108220009143084321688860D4E905010843216827
:10823000C96821F0FF0108432168C8602068006810
:1082400040F001002168086000202064202084F8AC
:108250003D000020206384F83E0000BF30E70000AE
:10826000A086010080841E0000093D0040420F00EE
:108270002DE9FC5F04460F4690469946DDE90CABBC
:108280000E9EFFF7F5FE054694F83D00202872D1BA
:1082900019230122B7492046009501F0F5FF10B1DE
:1082A0000220BDE8FC9F00BF94F83C00012801D1EA
:1082B0000220F6E7012084F83C0000BF2068006837
:1082C00000F0010028B92068006840F00100216832
:1082D00008602068006820F400602168086022209F
:1082E00084F83D00402084F83E0000202064C4F85B
:1082F00024A0A4F82AB0608D20859F48E0624B46F8
:10830000424639462046CDE9006501F08DFE08B1B0
:108310000120C6E7208D88B900BF002001902068A9
:108320004069019020688069019000BF00BF20680B
:10833000006840F40070216808604BE0208D01283F
:108340001AD12068006820F480602168086072B645
:1083500000BF00200190206840690190206880697A
:10836000019000BF00BF2068006840F400702168E1
:10837000086062B62EE0FBE0208D022819D120684B
:10838000006840F400602168086072B600BF0020F9
:10839000019020684069019020688069019000BFC9
:1083A00000BF2068006820F480602168086062B621
:1083B00010E02068006840F480602168086000BF19
:1083C0000020019020684069019020688069019038
:1083D00000BF00BFBDE0208D032870D8208D01288C
:1083E00015D12A463146204601F0F3FF08B101209D
:1083F00057E720680069616A0870606A401C606223
:10840000208D401E2085608D401E6085A1E0208D5E
:1084100002282CD13346002258492046009501F00D
:1084200033FF08B101203CE772B62068006840F4D1
:1084300000702168086020680069616A0870606ADD
:10844000401C6062208D401E2085608D401E60852E
:1084500062B620680069616A0870606A401C6062E8
:10846000208D401E2085608D401E608571E0334662
:10847000002242492046009501F006FF08B1012084
:108480000FE72068006820F480602168086072B6F9
:1084900020680069616A0870606A401C6062208D13
:1084A000401E2085608D401E608533460022334982
:1084B0002046009501F0E8FE10B10120F1E621E030
:1084C0002068006840F40070216808602068006936
:1084D000616A0870606A401C6062208D401E2085C1
:1084E000608D401E608562B620680069616A087010
:1084F000606A401C6062208D401E2085608D401E99
:10850000608526E02A463146204601F062FF08B128
:108510000120C6E620680069616A0870606A401C34
:108520006062208D401E2085608D401E6085206821
:108530004069C0F3800060B120680069616A08701A
:10854000606A401C6062208D401E2085608D401E48
:108550006085208D00287FF43EAF202084F83D0008
:10856000002084F83E0000BF84F83C0000BF98E67D
:10857000022096E6020010000000FFFF0400010048
:108580002DE9FC5F04460F4690469946DDE90CABA9
:108590000E9EFFF76DFD054694F83D0020287DD125
:1085A000192301224D492046009501F06DFE10B1BE
:1085B0000220BDE8FC9F00BF94F83C00012801D1D7
:1085C0000220F6E7012084F83C0000BF2068006824
:1085D00000F0010028B92068006840F0010021681F
:1085E00008602068006820F400602168086021208D
:1085F00084F83D00402084F83E0000202064C4F848
:1086000024A0A4F82AB0608D20853548E0624B464E
:10861000424639462046CDE9006501F0A1FD08B18A
:108620000120C6E731E02A463146204601F011FF1D
:1086300050B1206C042805D12068006840F4007017
:10864000216808600120B4E7606A00782168086149
:10865000606A401C6062208D401E2085608D401E37
:10866000608520684069C0F3800070B1208D60B1E2
:10867000606A007821680861606A401C6062208D31
:10868000401E2085608D401E6085208D0028CAD147
:108690002A463146204601F0C9FD00E01CE050B1F9
:1086A000206C042805D12068006840F4007021681F
:1086B000086001207DE72068006840F400702168B0
:1086C0000860202084F83D00002084F83E0000BFB0
:1086D00084F83C0000BF6CE702206AE7020010004B
:1086E0000000FFFF10B5044607492068884209D101
:1086F0000648C06920F400100449C861C02104483C
:10870000FFF7E0F910BD00000054004000100240E7
:10871000000C014010B586B0044600200290039082
:10872000049005901C492068884232D100BF1B4844
:10873000C06940F400101949C8610846C06900F4D6
:108740000010019000BF00BF00BF0846806940F0E4
:10875000080088610846806900F00800019000BFA9
:1087600000BFC0200290122003900320059002A9B0
:108770000B48FFF7D7FA00BF0848C06940F4001063
:108780000649C8610846C06900F40010019000BFA6
:1087900000BF06B010BD00000054004000100240B1
:1087A000000C014003480068034909780844014966
:1087B00008607047380000204000002010B50848CD
:1087C000006840F0100006490860032000F0EEF851
:1087D000002000F007F800F049F8002010BD00006C
:1087E0000020024070B588B0044600250026002213
:1087F00021462C2000F09CF82C2000F089F800BFC6
:108800001648806940F40050144988610846806920
:1088100000F40050019000BF00BF02A903A800F0BF
:108820009FF900F0D5F905460D48B5FBF0F0461E5E
:108830000C480D49086040F2E7310B48C1604660C2
:1088400000210161816000F0B7FC20B9064800F00A
:108850000EFD08B070BD0120FBE7000000100240D3
:1088600040420F00003401403408002008B500BF2A
:108870001448806940F00100124988610846806907
:1088800000F00100009000BF00BF00BF0846C069B3
:1088900040F08050C8610846C06900F080500090E8
:1088A00000BF00BF00220F21901E00F041F800BF62
:1088B0000549486820F0E06040F00070486000BF63
:1088C00008BD0000001002400000014010B5014644
:1088D0000846002817DB00F01F0301229A400B4BCB
:1088E000440943F8242000BF00BF00BFBFF34F8FEF
:1088F00000BF00BF00BF00BF00BF00BFBFF36F8F4E
:1089000000BF00BF00BF00BF10BD000080E100E05D
:1089100001460846002809DB00F01F0301229A40A7
:1089200043099B0003F1E023C3F8002100BF704717
:108930002DE9F05F80460D461646002704F076FCD0
:10894000074639462A46334601F00700C0F1070AB8
:10895000BAF1040F02D94FF0040A01E0C0F1070A8E
:10896000D14600F1040ABAF1070F02D24FF0000A13
:1089700001E0A0F1030AD4464FF0010A0AFA09FA0D
:10898000AAF1010A0AEA020A0AFA0CFA4FF0010BEC
:108990000BFA0CFBABF1010B0BEA030B4AEA0B04DD
:1089A0002146404604F04AFCBDE8F09F00BF00F0BD
:1089B0000702064B19684FF6FF031940044B0B439F
:1089C00043EA0221014B196000BF70470CED00E043
:1089D0000000FA0570B504460D460CB9012070BDC3
:1089E0005A48006800F00700A8420ED257480068B5
:1089F00020F007002843554908600846006800F049
:108A00000700A84201D00120E9E7207800F0020029
:108A100002281DD1207800F00400042805D14C481C
:108A2000406840F4E0604A494860207800F008005F
:108A3000082805D14648406840F4605044494860E1
:108A40004348406820F0F000A1680843404948606E
:108A5000207800F0010078B36068012806D13C4816
:108A6000006800F4003090B90120B8E7606802287F
:108A700006D13748006800F0007040B90120AEE729
:108A80003348006800F0020008B90120A7E7304829
:108A9000406820F00300616808432D494860FFF7F3
:108AA000E7FA064609E0FFF7E3FA801B41F2883156
:108AB000884202D9032092E707E02548406800F089
:108AC0000C006168B0EB810FEDD12048006800F028
:108AD0000700A8420ED91D48006820F0070028436F
:108AE0001A4908600846006800F00700A84201D053
:108AF000012074E7207800F00400042807D114480E
:108B0000406820F4E060E16808431149486020783B
:108B100000F00800082808D10D48406820F4605093
:108B2000216940EAC1000A49486000F061F808493B
:108B30004968C1F30311074A515CC84006490860FF
:108B400006480068FFF74EFE002048E7002002407C
:108B5000001002408C070108440000203C00002067
:108B60000F2202600D4A526802F0030242600B4A73
:108B7000526802F0F0028260084A526802F4E06231
:108B8000C260064A526802F46052D2080261044A86
:108B9000126802F007020A607047000000100240ED
:108BA0000020024001480068704700004400002097
:108BB00000B5FFF7F7FF04494968C1F30221034AF2
:108BC000515CC84000BD0000001002409C07010835
:108BD00000B5FFF7E7FF04494968C1F3C221034A22
:108BE000515CC84000BD0000001002409C07010815
:108BF000F0B585B00FF26C0C9CE8E01001A8A0E87D
:108C0000E0101CA52D6800950021002200230024FF
:108C10000020194D696801F00C05F5B1042D02D052
:108C2000082D19D101E0154819E001ADC1F38346C3
:108C3000AC5D01F4803555B10F4D6D68C5F340450D
:108C40001DF805200D4D6543B5FBF2F302E00C4D18
:108C500004FB05F3184602E000BF0A4800BF00BF4E
:108C600005B0F0BD02030405060708090A0B0C0D48
:108C70000E0F10100102000000100240001BB70090
:108C800000093D0000127A00F8B504460CB9012035
:108C9000F8BD207800F00100002878D0F84840683E
:108CA00000F00C0004280CD0F548406800F00C00DF
:108CB000082811D1F248406800F48030B0F5803FB8
:108CC0000AD1EF48006800F4003000285FD06068E7
:108CD00000285CD10120DBE700BF6068B0F5803F71
:108CE00006D1E748006840F48030E549086028E094
:108CF000606858B9E248006820F48030E0490860B4
:108D00000846006820F4802008601AE06068B0F52A
:108D1000A02F0BD1DA48006840F48020D8490860C1
:108D20000846006840F4803008600AE0D4480068D3
:108D300020F48030D24908600846006820F4802082
:108D4000086000BF606888B1FFF792F9054606E049
:108D5000FFF78EF9401B642801D9032098E7C84823
:108D6000006800F400300028F2D010E0FFF780F92E
:108D7000054606E0FFF77CF9401B642801D9032073
:108D800086E7BF48006800F400300028F2D1207860
:108D900000F00200022857D1B948406800F00C00EA
:108DA00050B1B748406800F00C00082818D1B4480A
:108DB000406800F4803098B9B148006800F00200C3
:108DC00020B12069012801D0012061E7AC4800688A
:108DD00020F0F800616940EAC100A949086033E069
:108DE0002069E8B10120A7490860FFF741F905466D
:108DF00006E0FFF73DF9401B022801D9032047E7B1
:108E00009F48006800F002000028F2D09C480068EB
:108E100020F0F800616940EAC1009949086013E058
:108E2000002098490860FFF723F9054606E0FFF7A0
:108E30001FF9401B022801D9032029E79048006848
:108E400000F002000028F2D1207800F00800082885
:108E50002DD1A069B8B101208B490860FFF708F94E
:108E6000054606E0FFF704F9401B022801D903205C
:108E70000EE78348406A00F002000028F2D001208B
:108E800001F0B0FF13E000207F490860FFF7F0F821
:108E9000054606E0FFF7ECF8401B022801D9032045
:108EA000F6E67748406A00F002000028F2D1207808
:108EB00000F00400042873D100277148C06900F055
:108EC000805070B900BF6E48C06940F080506C4956
:108ED000C8610846C06900F08050009000BF00BF24
:108EE00001276A48006800F48070B0B967480068DC
:108EF00040F4807065490860FFF7BAF8054606E05F
:108F0000FFF7B6F8401B642801D90320C0E65F488C
:108F1000006800F480700028F2D000BFE0680128EB
:108F200006D15748006A40F001005549086227E021
:108F3000E06858B95248006A20F0010050490862C0
:108F40000846006A20F00400086219E0E06805287D
:108F50000BD14B48006A40F00400494908620846BA
:108F6000006A40F0010008620AE04548006A20F00B
:108F70000100434908620846006A20F004000862C4
:108F800000BFE068A0B1FFF773F8054609E0FFF7FE
:108F90006FF8401B41F28831884202D9032077E6FE
:108FA00022E03748006A00F002000028EFD012E00B
:108FB000FFF75EF8054608E0FFF75AF8401B41F25C
:108FC0008831884201D9032062E62D48006A00F00A
:108FD00002000028F0D1012F05D12948C06920F0F6
:108FE00080502749C86100BFE069C8B32448406881
:108FF00000F00C00082860D0E069022848D1002069
:1090000020490866FFF734F8054606E0FFF730F818
:10901000401B022801D903203AE61948006800F0F5
:1090200000700028F2D1206AB0F5803F07D11448C3
:10903000406820F40030A168084311494860D4E931
:10904000080108430E49496821F4741108430C498A
:10905000486001200B490866FFF70AF8054607E05B
:109060003DE0FFF705F8401B022801D903200FE679
:109070000348006800F000700028F2D02FE00000E4
:109080000010024000004242800442420070004052
:10909000002014490866FEF7EBFF054606E0FEF7E0
:1090A000E7FF401B022801D90320F1E50E480068C4
:1090B00000F000700028F2D111E0E069012800D131
:1090C000E6E50948466806F48031206A814204D109
:1090D00006F47011606A814201D00120D8E50020B9
:1090E000D6E5000000004242001002407047704781
:1090F00010B50346002200BF93F83C00012801D1BF
:10910000022010BD012083F83C0000BF22F0FF00C8
:10911000CC6840EA040222F440708C6840EA040201
:1091200022F480604C6840EA040222F400600C687B
:1091300040EA040222F480500C6940EA040222F45E
:1091400000504C6940EA040222F48040CC6940EAB5
:1091500004021868426400BF002083F83C0000BF8E
:1091600000BFCEE710B5024600BF92F83C000128D0
:1091700001D1022010BD012082F83C0000BF022076
:1091800082F83D00106843681068846823F070031B
:109190000868034324F0800448680443106843606F
:1091A00010688460012082F83D0000BF002082F832
:1091B0003C0000BF00BFDDE710B504460CB901203C
:1091C00010BD94F83D0028B9002084F83C002046EA
:1091D00000F00CF8022084F83D00211D206802F008
:1091E000F1FF012084F83D000020E9E708B5124AAC
:1091F000016891420DD100BF1049896941F40061B5
:109200000E4A91611146896901F40061009100BF25
:1092100011E00B4A016891420DD100BF0749C969AD
:1092200041F00801054AD1611146C96901F0080100
:10923000009100BF00BF08BD002C0140001002409B
:10924000000C00400146022081F83D00086880685B
:1092500000F00702062A05D00868006840F0010007
:109260000B681860012081F83D000020704701461E
:109270000868C06840F001000B68D8600868806822
:1092800000F00702062A05D00868006840F00100D7
:109290000B681860002070470146022081F83D00ED
:1092A00000BF0868006A41F21112104050B9086806
:1092B000006A9210104028B90868006820F0010088
:1092C0000A68106000BF012081F83D00002070474F
:1092D0002DE9F04104460D4600BF94F83C000128FA
:1092E00002D10220BDE8F081012084F83C0000BFDB
:1092F000022084F83D002068866826F0770626F470
:109300007F46206886602868502833D00CDC2028EF
:1093100050D004DC00284BD0102851D149E030282F
:1093200049D040284CD139E060282DD0702807D092
:10933000B0F5805F03D0B0F5005F41D10DE040E0B3
:10934000D5E902136A68206802F09BFF20688668EE
:1093500046F077062068866033E0D5E902136A6834
:10936000206802F08EFF2068806840F48040216809
:10937000886026E0EA686968206803F073F8502185
:10938000206802F089FF1CE0EA686968206803F041
:109390007CF86021206802F07FFF12E0EA686968CB
:1093A000206803F05FF84021206802F075FF08E0B4
:1093B00000BF00BF00BF2968206802F06DFF00E019
:1093C00000BF00BF012084F83D0000BF002084F8EA
:1093D0003C0000BF00BF85E7704710B50446206819
:1093E0000069C0F34000D8B12068C068C0F34000F5
:1093F000B0B16FF002002168086101202077206879
:10940000806900F0030018B12046FFF7E5FF05E092
:10941000204600F0E7F8204600F084F9002020778D
:1094200020680069C0F38000D8B12068C068C0F32C
:109430008000B0B16FF0040021680861022020773D
:109440002068806900F4407018B12046FFF7C4FF1F
:1094500005E0204600F0C6F8204600F063F9002041
:10946000207720680069C0F3C000D8B12068C068C8
:10947000C0F3C000B0B16FF008002168086104209B
:1094800020772068C06900F0030018B12046FFF77C
:10949000A3FF05E0204600F0A5F8204600F042F9C1
:1094A0000020207720680069C0F30010D8B1206840
:1094B000C068C0F30010B0B16FF0100021680861FF
:1094C000082020772068C06900F4407018B1204659
:1094D000FFF782FF05E0204600F084F8204600F008
:1094E00021F9002020772068006900F0010058B1C0
:1094F0002068C06800F0010030B16FF00100216801
:109500000861204600F080F920680069C0F3C010AF
:1095100058B12068C068C0F3C01030B16FF080004F
:10952000216808612046FFF7E1FD20680069C0F36B
:10953000801058B12068C068C0F3801030B16FF05F
:10954000400021680861204600F06AF9206800693F
:10955000C0F3401058B12068C068C0F3401030B16B
:109560006FF02000216808612046FFF7C0FD10BDA4
:1095700010B586B004460020029003900490059038
:1095800014492068884222D100BF1348806940F006
:109590004000114988610846806900F04000019050
:1095A00000BF00BF4FF4C04002900220039005901E
:1095B00002A90A48FEF7B6FB00BF0949486820F037
:1095C000C00040F0E06040F0C000486000BF06B05E
:1095D00010BD0000002C01400010024000180140A6
:1095E00000000140704770B504460D46164600BFA6
:1095F00094F83C00012801D1022070BD012084F8BC
:109600003C0000BF022084F83D0036B1042E1BD080
:10961000082E31D00C2E5ED145E02946206802F09C
:1096200045FE2068806940F0080021688861206854
:10963000806920F0040021688861206880692969B8
:1096400008432168886147E02946206802F066FEE9
:109650002068806940F40060216888612068806922
:1096600020F480602168886120688069296940EA67
:109670000120216888612FE02946206802F08CFED5
:109680002068C06940F008002168C8612068C0698E
:1096900020F004002168C8612068C0692969084376
:1096A0002168C86118E02946206802F0B1FE2068F0
:1096B000C06940F400602168C8612068C06920F476
:1096C00080602168C8612068C069296940EA01207A
:1096D0002168C86100E000BF00BF012084F83D00A0
:1096E00000BF002084F83C0000BF00BF85E710B534
:1096F00004460CB9012010BD94F83D0028B90020A3
:1097000084F83C00204600F00CF8022084F83D006C
:10971000211D206802F056FD012084F83D00002044
:10972000E9E770477047000070B504460E46012215
:109730003146206802F094FD0F492068884203D02A
:109740000E492068884201D1012000E0002028B1A4
:109750002068406C40F400402168486420688068BC
:1097600000F00705062D05D02068006840F00100D4
:1097700021680860002070BD002C014000340140C9
:1097800030B504460D4600222946206802F068FDE7
:109790001B492068884203D01A492068884201D1B9
:1097A000012000E0002090B100BF2068006A41F273
:1097B0001111084050B92068006A8910084028B982
:1097C0002068406C20F400402168486400BF00BF5E
:1097D0002068006A41F21111084050B92068006AFF
:1097E0008910084028B92068006820F0010021682D
:1097F000086000BF012084F83D00002030BD00005B
:10980000002C01400034014010B504460349206893
:10981000884201D1FEF7C6FF10BD000000340140B0
:10982000704770B50446002520684069C0F3C01534
:1098300094F8390021280ED16DB12068406920F0DC
:10984000800021684861206B10B1206BFDF7C6FDD8
:10985000204602F0E1FE20684069C0F3801594F8CC
:109860003A0022280ED16DB12068406920F04000F6
:1098700021684861606B10B1606BFDF7AFFD204659
:1098800002F0AAFE002070BD704700002DE9F047ED
:109890000446206805682068C668206847694FF05C
:1098A0000008C14605F00F08B8F1000F0AD105F015
:1098B000200038B106F0200020B1204602F0B6FEAC
:1098C000BDE8F087B8F1000F6DD007F0010018B9BE
:1098D00006F49070002866D005F0010030B106F45F
:1098E000807018B1E06B40F00100E06305F0040007
:1098F00030B107F0010018B1E06B40F00200E06306
:1099000005F0020030B107F0010018B1E06B40F043
:109910000400E06305F0080030B107F0010018B161
:10992000E06B40F00800E063E06B68B305F02000F6
:1099300028B106F0200010B1204602F077FE206822
:109940004069C0F38019E06B00F0080010B9B9F16C
:10995000000F22D0204602F03FFE2068406900F050
:109960004000B0B12068406920F0400021684861A3
:10997000606B50B11748616B4863606BFDF75AFD2F
:1099800010B1606B416B88470CE02046FFF77CFF0D
:1099900008E02046FFF778FF04E02046FFF774FF59
:1099A0000020E0638CE705F0800030B106F0800015
:1099B00018B1204602F05EFF82E705F0400030B1AA
:1099C00006F0400018B1204602F016FE78E700BF0E
:1099D00076E70000DDC4000810B504460CB901208C
:1099E00010BDA06900B100E000BF94F8390028B9AB
:1099F000002084F83800204600F028F8242084F85D
:109A000039002068C06820F400502168C8602046F2
:109A100002F060FE2068006920F49040216808612F
:109A20002068406920F02A00216848612068C068E9
:109A300040F400502168C8600020E063202084F8D2
:109A4000390084F83A000020CAE7000010B586B05B
:109A500004460020029003900490059095492068E8
:109A6000884252D100BF9448806940F480409249B6
:109A700088610846806900F48040019000BF00BF03
:109A800000BF0846806940F004008861084680698C
:109A900000F00400019000BF00BF481502900220B2
:109AA00003900320059002A98448FEF73BF94FF488
:109AB0008060029000200390049002A97F48FEF786
:109AC00031F97F487F4908601020486000217D48B7
:109AD00081608021C16000210161416181614FF499
